:100000000C9462000C948A000C948A000C948A0070
:100010000C948A000C948A000C948A000C948A0038
:100020000C948A000C948A000C948A000C948A0028
:100030000C948A000C948A000C948A000C948A0018
:100040000C945D0A0C948A000C94CD0A0C94A70AB7
:100050000C948A000C948A000C948A000C948A00F8
:100060000C94FF0A0C948A00000000002400270072
:100070002A0000000000250028002B0000000000DE
:1000800023002600290004040404040404040202DA
:100090000202020203030303030301020408102007
:1000A0004080010204081020010204081020000012
:1000B0000008000201000003040700000000000027
:1000C00000001E0C11241FBECFEFD8E0DEBFCDBF55
:1000D00011E0A0E0B1E0ECE0FFE102C005900D927C
:1000E000A433B107D9F722E0A4E3B1E001C01D9227
:1000F000A03DB207E1F710E0C2E6D0E004C02197CE
:10010000FE010E947E0FC136D107C9F70E94570C2D
:100110000C94840F0C940000833081F028F481301B
:1001200099F08230A9F008958730A9F08830C9F09D
:100130008430B1F4809180008F7D03C08091800075
:100140008F7780938000089584B58F7784BD08955C
:1001500084B58F7DFBCF8091B0008F778093B00006
:1001600008958091B0008F7DF9CFCF93DF93282F32
:1001700030E0F901E255FF4F8491F901E656FF4F57
:10018000D491F901EA57FF4FC491CC23A1F081111A
:100190000E948C00EC2FF0E0EE0FFF1FE458FF4FA1
:1001A000A591B491EC91ED2381E090E009F480E019
:1001B000DF91CF91089580E090E0FACF1F93CF9325
:1001C000DF93282F30E0F901E255FF4F8491F901C8
:1001D000E656FF4FD491F901EA57FF4FC491CC2363
:1001E000A9F0162F81110E948C00EC2FF0E0EE0F89
:1001F000FF1FEE58FF4FA591B4918FB7F894EC9183
:10020000111108C0D095DE23DC938FBFDF91CF9111
:100210001F910895DE2BF8CFCF93DF9390E0FC0180
:10022000E656FF4F24918A579F4FFC018491882303
:10023000D1F090E0880F991FFC01E859FF4FA5917C
:10024000B491FC01EE58FF4FC591D491623071F426
:100250009FB7F8943C91822F809583238C93E881FB
:100260002E2B28839FBFDF91CF9108958FB7F894ED
:10027000EC912E2B2C938FBFF6CF3FB7F894809143
:10028000B1019091B201A091B301B091B40126B532
:10029000A89B05C02F3F19F00196A11DB11D3FBFBE
:1002A000BA2FA92F982F8827BC01CD01620F711D8D
:1002B000811D911D42E0660F771F881F991F4A9587
:1002C000D1F708958F929F92AF92BF92CF92DF9213
:1002D000EF92FF926B017C010E943D014B015C019A
:1002E000C114D104E104F104B9F00E943D01681980
:1002F00079098A099B09683E73408105910580F35D
:1003000021E0C21AD108E108F10888EE880E83E0E6
:10031000981EA11CB11CE4CFFF90EF90DF90CF900E
:10032000BF90AF909F908F90089508950895AF92D9
:10033000BF92CF92DF92EF92FF920F931F93CF93D2
:10034000DF936C017B018B01040F151FEB015E0134
:10035000AE18BF08C017D10759F06991D601ED91C9
:10036000FC910190F081E02DC6010995892B79F768
:10037000C501DF91CF911F910F91FF90EF90DF901A
:10038000CF90BF90AF900895FC01538D448D252FE1
:1003900030E0842F90E0821B930B541710F0CF961F
:1003A000089501970895FC01918D828D981761F051
:1003B000A28DAE0FBF2FB11D5D968C91928D9F5F68
:1003C0009F73928F90E008958FEF9FEF0895FC0147
:1003D000918D828D981731F0828DE80FF11D858DFA
:1003E00090E008958FEF9FEF0895FC01918D228D8D
:1003F000892F90E0805C9F4F821B91098F73992712
:10040000089587E292E00E94F50121E0892B09F42A
:1004100020E0822F089580E090E0892B29F00E944F
:10042000010281110C9400000895FC01A48DA80F15
:10043000B92FB11DA35ABF4F2C91848D90E0019626
:100440008F739927848FA689B7892C93A089B18946
:100450008C91837080648C93938D848D981306C0E7
:100460000288F389E02D80818F7D80830895EF924B
:10047000FF920F931F93CF93DF93EC0181E0888F5E
:100480009B8D8C8D98131AC0E889F989808185FF2E
:1004900015C09FB7F894EE89FF896083E889F989D0
:1004A00080818370806480839FBF81E090E0DF91D2
:1004B000CF911F910F91FF90EF900895F62E0B8D25
:1004C00010E00F5F1F4F0F731127E02E8C8D8E11E0
:1004D0000CC00FB607FCFACFE889F989808185FF47
:1004E000F5CFCE010E941502F1CFEB8DEC0FFD2F61
:1004F000F11DE35AFF4FF0829FB7F8940B8FEA8902
:10050000FB8980818062CFCFCF93DF93EC01888D10
:100510008823B9F0AA89BB89E889F9898C9185FD7E
:1005200003C0808186FD0DC00FB607FCF7CF8C910C
:1005300085FFF2CF808185FFEDCFCE010E941502AD
:10054000E9CFDF91CF91089520915D01260F3327E8
:10055000331F21323105ECF42091FD01FC0190E0C4
:1005600080E0243069F082E00895A0915D0121913E
:10057000AC01435C5E4FA40FB52FB11D2C930196C7
:10058000861798F380915D01680F60935D0180E0AC
:10059000089581E008951092FD0181E08093FC01AF
:1005A0001092D70161E082E10E94DE0061E083E108
:1005B0000E94DE00E9EBF0E080818E7F8083808105
:1005C0008D7F808388E48093B80085E48093BC00AD
:1005D0000895CF93DF9391E090933C018823B9F085
:1005E000C091B800D091BA008091BC008A7B809302
:1005F000BC0060E082E10E94DE0060E083E10E94D6
:10060000DE000E94CB02D093BA00C093B800DF9105
:10061000CF9108958F929F92AF92BF92CF92DF9227
:10062000EF92FF920F931F93CF93DF93D091260207
:10063000D13208F0D7C0182FC09125020E943D0189
:100640006B017C018091FD0181116BC082E0809380
:10065000FD011093FC018FEF8093FB011092FA01D2
:10066000D093F901A5E0B2E0E9EDF1E080E0D81324
:1006700091C01092D8018091D801CC0FC82BC093A3
:10068000D8018091D701813009F088C01092D7013C
:100690000E943D016B017C018091D8018093BB00D9
:1006A0008091FF0190910002A0910102B09102029D
:1006B000892B8A2B8B2BA1F00E943D010091FF0119
:1006C0001091000220910102309102026C197D0903
:1006D0008E099F09061717072807390708F442C033
:1006E0008091BC0083FDD8CF85EC8093BC000E9434
:1006F0003D016B017C018091FD01823009F450C005
:100700008091FB018F3F09F46FC08091FB01803223
:1007100009F46CC08091FB01803309F469C084E066
:1007200026C08091FF0190910002A0910102B0913A
:100730000202892B8A2B8B2B09F484CF0E943D0166
:100740008090FF0190900002A0900102B090020200
:100750006C197D098E099F0986169706A806B906A9
:1007600008F070CF8091FE010E94E90285E01092AE
:1007700004021092260210920302DF91CF911F9182
:100780000F91FF90EF90DF90CF90BF90AF909F9030
:100790008F9008959D9191938F5F69CF85EEA5CF3E
:1007A0008091FF0190910002A0910102B09102029C
:1007B000892B8A2B8B2B09F49ECF0E943D0100913F
:1007C000FF011091000220910102309102026C1988
:1007D0007D098E099F09061717072807390708F0B2
:1007E0008ACFC0CF81E0C3CF80E0C1CF82E0BFCF4E
:1007F00083E0BDCFCF92DF92EF92FF920F931F93D2
:10080000CF93C82F813208F096C00E943D016B0142
:100810007C018091FD01811169C081E08093FD011F
:100820008093FC019FEF9093FB011092FA019C0FC3
:100830009093F9018093D8018091D801806D8093C5
:10084000D8018091D701813009F077C01092D7018B
:100850000E943D016B017C018091D8018093BB0017
:100860008091FF0190910002A0910102B0910202DB
:10087000892B8A2B8B2BA1F00E943D010091FF0157
:100880001091000220910102309102026C197D0941
:100890008E099F09061717072807390708F447C06C
:1008A0008091BC0083FDD8CF85EC8093BC000E9472
:1008B0003D016B017C018091FD01813009F43FC055
:1008C0008091FA018C1710F4C091FA01A9EDB1E002
:1008D000E7EBF1E080E08C1354C08C2FCF911F9197
:1008E0000F91FF90EF90DF90CF9008958091FF01DE
:1008F00090910002A0910102B0910202892B8A2BF3
:100900008B2B09F486CF0E943D010091FF011091CD
:10091000000220910102309102026C197D098E09BA
:100920009F09061717072807390708F072CF80912B
:10093000FE010E94E902C0E0D0CF85EEB6CF8091E3
:10094000FF0190910002A0910102B0910202892B57
:100950008A2B8B2B09F4AFCF0E943D010091FF0140
:100960001091000220910102309102026C197D0960
:100970008E099F09061717072807390708F09BCF2C
:10098000D6CF9D9191938F5FA6CF0895E091B60148
:100990008091B501E81730F4F0E0E954FE4F808112
:1009A00090E008958FEF9FEF08959091B6018091A8
:1009B000B5012FEF3FEF981748F4E92FF0E0E95425
:1009C000FE4F208130E09F5F9093B601C9010895EA
:1009D0008091B5019091B601891B990B0895CF9232
:1009E000DF92EF92FF920F931F93CF93DF937C01DF
:1009F000CB018A0120910302222389F0EB016B01D4
:100A0000C40ED51ECC15DD0569F06991D701ED91B5
:100A1000FC910190F081E02DC7010995F3CF642F7F
:100A20000E94A402C801DF91CF911F910F91FF9006
:100A3000EF90DF90CF900895CF93DF931F92CDB7C3
:100A4000DEB76983209103022223F9F02091260268
:100A5000203258F021E030E0FC013383228390E023
:100A600080E00F90DF91CF91089580910402E82FEC
:100A7000F0E0EB5FFD4F998190838F5F80930402DC
:100A80008093260281E090E0ECCF61E0CE010196F8
:100A90000E94A402F7CF90E080E00895609388015F
:100AA0007093890180938A0190938B01645D7E4FDE
:100AB0008F4F9F4F609384017093850180938601CF
:100AC0009093870182E090E090938F0180938E0154
:100AD0002FB7F8948091AD019091AE01A091AF0134
:100AE000B091B0012FBF8093380190933901A0934A
:100AF0003A01B0933B0108950F931F938FB7F89479
:100B00000091AD011091AE012091AF013091B00183
:100B10008FBF409138015091390160913A01709135
:100B20003B01041B150B260B370B8091880190911C
:100B30008901A0918A01B0918B01083E13402105E3
:100B40003105C0F00196A11DB11D809388019093DD
:100B50008901A0938A01B0938B0148515C4F6F4F7C
:100B60007F4F409338015093390160933A0170935D
:100B70003B01C4CF40918401509185016091860171
:100B80007091870184179507A607B70770F0E09169
:100B90008C01F0918D01309741F009956115710537
:100BA0008105910569F00E944E0560918801709160
:100BB000890180918A0190918B011F910F91089575
:100BC0008091880190918901A0918A01B0918B0157
:100BD000845D9E4FAF4FBF4F8093840190938501FA
:100BE000A0938601B093870181E090E020918E016F
:100BF00030918F01232B11F490E080E090938F01CE
:100C000080938E01D2CF4F925F926F927F928F929C
:100C10009F92AF92BF92CF92DF92EF92FF920F938B
:100C20001F93CF93DF93FC011681A12FB0E020E842
:100C300033E341EE51E00E94060F4B015C01C2EB31
:100C4000D7E09D0104E610E080E9E82EFF24F3944C
:100C5000CE01825B9740821793079CF14580512C0F
:100C60002E54384FC90164E670E00E946A0F7C017F
:100C7000C90160E971E00E946A0F6C0100E011E0B7
:100C8000C1E0D0E0390183E068227724C415D5059E
:100C90000CF040C0C230D10571F56114710459F5F2
:100CA000E114F10419F4C114D10429F5B0E88B0E54
:100CB000BBE39B1EB6E2AB1EB11C21960F5F1F4F1C
:100CC000E5CFCE0183709927892B99F4CE01B80125
:100CD0000E946A0F892B31F4CE01B7010E946A0F7E
:100CE000892B39F4A0E88A0EA1E59A1EA1E0AA1E7C
:100CF000B11C2196ADCFD8018C91A82FB0E020E88F
:100D000031E541E050E00E94060F860E971EA81EB6
:100D1000B91ED3CF228130E0A0E1BEE00E943B0F9C
:100D20006B017C01218130E0ACE3B0E00E943B0F1D
:100D3000C60ED71EE81EF91E8081C80ED11CE11C0C
:100D4000F11CA481A150BB0B20E831E541E050E04B
:100D50000E94110F6C0D7D1D8E1D9F1D680D791D4C
:100D60008A1D9B1DDF91CF911F910F91FF90EF90F6
:100D7000DF90CF90BF90AF909F908F907F906F90BB
:100D80005F904F9008956F927F928F929F92AF9253
:100D9000BF92CF92DF92EF92FF920F931F93CF9368
:100DA000DF936B017C01EA018CE3882E912CA12C4E
:100DB000B12CC701A50194010E94190F6883CA01D3
:100DC000B901A50194010E94190F6983C701B601F9
:100DD00020E13EE040E050E00E94190FCA01B90155
:100DE00028E130E040E050E00E94190F6A83C7011B
:100DF000B60120E831E541E050E00E94190F690199
:100E00007A01CA01B9016C5F7F4F8F4F9F4F27E076
:100E100030E040E050E00E94190F6F5F6B83812C3F
:100E2000912C540140E094E6692E712C00E911E008
:100E3000242F30E02E54384FF901E370FF2730970C
:100E4000F9F4C901B3010E946A0F892B31F4C90179
:100E5000B8010E946A0F892B99F48EE691E0A0E018
:100E6000B0E0880E991EAA1EBB1ED501C401AA2798
:100E7000BB27C816D906EA06FB0638F04F5FD8CF65
:100E80008DE691E0A0E0B0E0ECCF4E83C90164E6CE
:100E900070E00E946A0F8C01C90160E971E00E9454
:100EA0006A0F309729F401151105E1F40097D1F08C
:100EB0004DE651E060E070E0841A950AA60AB70A90
:100EC000C818D908EA08FB08A0E0B1E020E021300A
:100ED00071F4309791F50115110511F4009769F53A
:100EE0004DE106C04EE651E060E070E0E5CF4C9188
:100EF00050E070E060E031E0320FC416D506E6063F
:100F0000F70640F0C41AD50AE60AF70A1196232F0D
:100F10003C30E9F62F5F2D83C394CC82DF91CF91D3
:100F20001F910F91FF90EF90DF90CF90BF90AF9007
:100F30009F908F907F906F9008954CE1D9CFCF9282
:100F4000DF92EF92FF92C0903401D0903501E09093
:100F50003601F0903701C616D706E806F90671F09B
:100F60006B017C0140E951E00E94C306C09234014C
:100F7000D0923501E0923601F0923701FF90EF9068
:100F8000DF90CF9008950E947C050E949F0780917A
:100F9000960190E08E54984F08950E947C050E941F
:100FA0009F078091900190E008950E947C050E9427
:100FB0009F078091910190E008950E947C050E9416
:100FC0009F078091920190E00895282F30E094E0EF
:100FD000359527959A95E1F7922F990F990F291B2F
:100FE000220F820F089561E08130910509F44DC010
:100FF00060E08230910521F08330910551F461E089
:101000008EE00E94DE0061E08FE00E94DE0060E082
:1010100010C060E08430910521F08530910571F4B5
:1010200061E08EE00E94DE0060E08FE00E94DE0062
:1010300061E080E10E94DE0060E021C060E0863077
:10104000910521F08730910531F461E08EE00E9436
:10105000DE0061E0EACF60E08830910521F0893060
:10106000910581F461E08EE00E94DE0060E08FE097
:101070000E94DE0060E080E10E94DE0061E081E12C
:101080000C94DE00892B31F460E08EE00E94DE00DB
:1010900060E0BACF089561E08130910509F462C043
:1010A00060E08230910549F483E00E94DE0061E057
:1010B00084E00E94DE0060E00BC08330910569F49B
:1010C00083E00E94DE0060E084E00E94DE0061E0D8
:1010D00085E00E94DE0060E00FC08430910589F455
:1010E00083E00E94DE0060E084E00E94DE0060E0B9
:1010F00085E00E94DE0061E086E00E94DE0060E0A4
:1011000013C085309105A9F483E00E94DE0060E001
:1011100084E00E94DE0060E085E00E94DE0060E086
:1011200086E00E94DE0061E087E00E94DE0060E071
:1011300016C00697B9F483E00E94DE0060E084E008
:101140000E94DE0060E085E00E94DE0060E086E054
:101150000E94DE0060E087E00E94DE0061E088E03F
:101160000C94DE0083E00E94DE0060E0A1CFFC0171
:1011700001900020E9F73197AF01481B590BBC01E2
:1011800087E292E00C949701CF93DF930E94B70817
:10119000EC0180E391E00E94B7088C0F9D1FDF9166
:1011A000CF910895CF92DF92EF92FF920F931F930A
:1011B000CF93DF93CDB7DEB7A1970FB6F894DEBF1C
:1011C0000FBECDBF9C0150E040E019A28E010F5D23
:1011D0001F4F8AE0C82ED12CE12CF12CCA01B90195
:1011E000A70196010E94190F605DF80162938F01BB
:1011F000211531054105510589F790E080E03097D0
:1012000019F0CF010E94B708A1960FB6F894DEBF7F
:101210000FBECDBFDF91CF911F910F91FF90EF9047
:10122000DF90CF900895CF93DF9300D000D000D00F
:101230001F92CDB7DEB781E08093030288E68093EA
:101240002502109204021092260260E084EC92E0E3
:101250000E941C0581E00E940A03811147C087E0BB
:101260000E94FA031092B6018093B50184EC92E0DB
:101270000E94D5048F770E94E507898384EC92E071
:101280000E94D5040E94E5078A8384EC92E00E94C4
:10129000D5048F7B0E94E5078B8384EC92E00E944B
:1012A000D5048C8384EC92E00E94D5040E94E5076B
:1012B0008D8384EC92E00E94D5048F770E94E5072D
:1012C0008E8384EC92E00E94D5040E94E507825E42
:1012D0008F83CE0101960E94030627960FB6F894DD
:1012E000DEBF0FBECDBFDF91CF91089560E070E00B
:1012F000CB01F3CF0F931F93CF93DF93EC0111E05A
:101300001093030288E68093250210920402109243
:10131000260260E084EC92E00E941C0528810AE02D
:10132000822F602F0E944A0F682F660F680F660F8A
:10133000620F84EC92E00E941C052981822F602FAD
:101340000E944A0F682F660F680F660F620F84ECC9
:1013500092E00E941C052A81822F602F0E944A0F72
:10136000682F660F680F660F620F84EC92E00E9490
:101370001C056B8184EC92E00E941C052C81822F5D
:10138000602F0E944A0F682F660F680F660F620F6A
:1013900084EC92E00E941C052D81822F602F0E9418
:1013A0004A0F682F660F680F660F620F84EC92E099
:1013B0000E941C052E812E51822F602F0E944A0F01
:1013C000682F660F680F660F620F84EC92E00E9430
:1013D0001C0581E00E940A03D82F1093030210928B
:1013E0000402109226026FE084EC92E00E941C0539
:1013F00081E00E940A03C0E081110CC081E00E94DC
:10140000FA031092B6018093B50184EC92E00E9439
:10141000D504C82F81E08093030210920402109239
:1014200026026FE084EC92E00E941C056C2F6F771F
:1014300084EC92E00E941C0581E00E940A038D2F3B
:10144000DF91CF911F910F91089585ED8093BC009E
:101450008091FF0190910002A0910102B0910202DF
:101460000796A11DB11D23E0B695A7959795879581
:101470002A95D1F72091BC0024FD03C01092FD01F4
:1014800008954091FF015091000260910102709116
:101490000202452B462B472B69F30097A105B105A6
:1014A00041F02AE22A95F1F700C00197A109B1099C
:1014B000E1CF8091FE010C94E9021F920F920FB6CA
:1014C0000F9211242F933F938F939F93AF93BF93CA
:1014D0008091AD019091AE01A091AF01B091B001AA
:1014E0003091AC0123E0230F2D3758F50196A11D53
:1014F000B11D2093AC018093AD019093AE01A093F8
:10150000AF01B093B0018091B1019091B201A0916F
:10151000B301B091B4010196A11DB11D8093B10139
:101520009093B201A093B301B093B401BF91AF9176
:101530009F918F913F912F910F900FBE0F901F9011
:10154000189526E8230F0296A11DB11DD2CF1F9238
:101550000F920FB60F9211242F933F934F935F93E7
:101560006F937F938F939F93AF93BF93EF93FF936B
:1015700087E292E00E941502FF91EF91BF91AF9137
:101580009F918F917F916F915F914F913F912F919B
:101590000F900FBE0F901F9018951F920F920FB6CD
:1015A0000F9211242F938F939F93EF93FF93E091CA
:1015B0003702F09138028081E0913D02F0913E02C5
:1015C00082FD1BC09081809140028F5F8F732091BC
:1015D0004102821741F0E0914002F0E0E95DFD4FE9
:1015E000958F80934002FF91EF919F918F912F9162
:1015F0000F900FBE0F901F9018958081F4CF1F920F
:101600000F920FB60F9211242F933F934F935F9336
:101610006F937F938F939F93AF93BF93EF93FF93BA
:101620008091B900887F803609F44AC0F0F588328D
:1016300009F4A7C018F5803109F49BC0B8F48823D9
:1016400009F4F9C0883009F494C0FF91EF91BF917B
:10165000AF919F918F917F916F915F914F913F914A
:101660002F910F900FBE0F901F901895883109F49D
:1016700088C0803251F78093FB0114C0803409F494
:101680009DC040F48033B9F38833F9F68093FB01B1
:1016900085ECB0C0803509F485C0883509F496C062
:1016A000883499F60E94250AD0CF883909F48CC075
:1016B00038F5883729F050F4883611F0803729F64C
:1016C00083E08093FD0110927F0157C0883809F4B0
:1016D0007BC0803919F0803809F0B7CF80917F0145
:1016E000803208F071C0E0917F0181E08E0F80931D
:1016F0007F018091BB00F0E0E15AFE4F80833DC046
:10170000803B39F0E0F4803A09F479C0883A09F076
:101710009CCF84E08093FD0110925E0110925D01E8
:10172000E0918201F0918301099580915D01811121
:101730000FC081E080935D0110923D0109C0803CA3
:1017400009F4A6CF883C09F4A3CF883B09F07DCFEC
:10175000E0915E0181E08E0F80935E01F0E0E35C3A
:10176000FE4F80818093BB0090915E0180915D016E
:1017700029C08091D8018093BB0085EC8093BC0088
:1017800064CF9091FA018091F901981758F5E09192
:10179000FA0181E08E0F8093FA01F0E0E752FE4FEC
:1017A0008081E9CFE091FA0181E08E0F8093FA0108
:1017B0008091BB00F0E0E752FE4F80839091FA01E8
:1017C0008091F9019817C8F285E8D8CFE091FA0125
:1017D00081E08E0F8093FA018091BB00F0E0E75228
:1017E000FE4F80838091FC0181115CCF81E080936A
:1017F000D70184EA8093BC001092FD0126CF85ECCE
:101800008093BC001092FD0180917F01803230F402
:10181000E0917F01F0E0E15AFE4F108260917F017C
:1018200070E0E0918001F09181018FE591E00995F0
:1018300010927F010ACF1092FB0134CFE7E2F2E071
:101840001382128288EE93E0A0E0B0E08483958357
:10185000A683B78320E131E03183208325EC30E09B
:101860003587248724EC30E03787268720EC30E06A
:10187000318B208B21EC30E0338B228B22EC30E05B
:10188000358B248B26EC30E0378B268B118E128E15
:10189000138E148EE4ECF2E013821282848395831B
:1018A000A683B78382E291E0918380830895CF93EA
:1018B000DF9300D000D000D01F92CDB7DEB7789470
:1018C00084B5826084BD84B5816084BD85B5826045
:1018D00085BD85B5816085BD80916E0081608093F6
:1018E0006E0010928100809181008260809381005F
:1018F000809181008160809381008091800081606F
:10190000809380008091B10084608093B1008091C9
:10191000B00081608093B00080917A0084608093F1
:101920007A0080917A00826080937A0080917A00B8
:10193000816080937A0080917A00806880937A0039
:101940001092C100E0913702F091380282E080836A
:10195000E0913302F09134021082E0913502F0916F
:10196000360280E1808310923F02E0913B02F091C9
:101970003C0286E08083E0913902F0913A02808156
:1019800080618083E0913902F0913A028081886021
:101990008083E0913902F0913A02808180688083EF
:1019A000E0913902F0913A0280818F7D808310921C
:1019B000B6011092B50110920402109226020E9404
:1019C000CB0285E991E0909383018093820186E9BF
:1019D00091E0909381018093800183E199E090935D
:1019E0008D0180938C018091880190918901A09153
:1019F0008A01B0918B018093840190938501A0931B
:101A00008601B09387010E947C050E947C0561E0FD
:101A100082E00E940C0161E083E00E940C0161E021
:101A200084E00E940C0161E085E00E940C0161E00D
:101A300086E00E940C0161E087E00E940C0161E0F9
:101A400088E00E940C0161E08DE00E940C0162E0E0
:101A500089E00E940C0162E08AE00E940C0161E0D2
:101A60008EE00E940C0161E08FE00E940C0161E0B9
:101A700080E10E940C0161E081E10E940C0190E094
:101A800080E00E944B0844E0C42ED12C01E010E01D
:101A9000C8010E944B0839E0E32EF12CC7010E94D7
:101AA000F30766E070E080E090E00E94620181E070
:101AB000E81AF10898F70F5F1F4F0730110541F73B
:101AC00081E0C81AD10811F70AE010E080E0682E22
:101AD00080E0782EEE24E394F12C22E0822E912CEB
:101AE00089E00E94B500892B31F464E670E080E063
:101AF00090E00E94620189E00E94B500892B09F004
:101B000055C00E94DD078F5F8093A7010E94D50713
:101B10008093A6010E94CD078093A5010E947C05B9
:101B20000E949F07809194018093A9010E947C05E7
:101B30000E949F07809195018093AA010E94C3078C
:101B40008093AB0199276091AA015091A90120913E
:101B5000A5013091A6014091A701843691050CF4AE
:101B6000A5C0825B97408093960160939501509346
:101B7000940140939201309391012093900180E968
:101B800091E00E9403060E944E050E947C05AE0172
:101B90004F5F5F4F0E94C306CE0101960E947A09F3
:101BA00068EC70E080E090E00E9462018AE00E94B0
:101BB000B500892B31F464E670E080E090E00E948B
:101BC00062018AE00E94B500892B09F055C00E948D
:101BD000DD078093A7010E94D5078F5F8093A60140
:101BE0000E94CD078093A5010E947C050E949F075B
:101BF000809194018093A9010E947C050E949F0717
:101C0000809195018093AA010E94C3078093AB0144
:101C100099276091AA015091A9012091A5013091C5
:101C2000A6014091A701843691050CF441C0825B66
:101C3000974080939601609395015093940140934F
:101C40009201309391012093900180E991E00E94EC
:101C500003060E944E050E947C05AE014F5F5F4F58
:101C60000E94C306CE0101960E947A0968EC70E0DA
:101C700080E090E00E9462010E94DD078D309105B6
:101C8000C8F49093A4018093A3018091A301909143
:101C9000A4018A30910580F0F092A201E092A101A6
:101CA0000A979093A00180939F0111C04E965BCF3D
:101CB0004E96BFCF0C97E5CF009709F0A2C0F092E7
:101CC000A201E092A1019092A00180929F010E9446
:101CD000D507B8010E94560F90939E0180939D01F5
:101CE000CB01B8010E94560F90939C0180939B01F9
:101CF0000E94CD07B8010E94560F6C0190939A0183
:101D000080939901CB01B8010E94560F5C0190931A
:101D100098018093970181E090E00E944B088091A8
:101D2000A1019091A2010E94F30763E070E080E0BE
:101D300090E00E94620182E090E00E944B08809156
:101D40009F019091A0010E94F30763E070E080E0A2
:101D500090E00E94620183E090E00E944B08809135
:101D60009B0190919C010E94F30763E070E080E08A
:101D700090E00E94620184E090E00E944B08809114
:101D80009D0190919E010E94F30763E070E080E066
:101D900090E00E94620185E090E00E944B08C5013E
:101DA0000E94F30763E070E080E090E00E9462012F
:101DB00086E090E00E944B08C6010E94F30763E0B2
:101DC00070E080E090E00E9462010E94CD0780FDFB
:101DD00004C060E08DE00E94DE000E94CD0780FF1D
:101DE00004C061E08DE00E94DE006114710409F41A
:101DF00077CE0E940102882309F472CE0E9400006F
:101E00006FCE1092A2011092A1014BCF0E943B0F06
:101E1000A59F900DB49F900DA49F800D911D11243E
:101E20000895B7FF0C94060F0E94060F821B930BB8
:101E30000895A1E21A2EAA1BBB1BFD010DC0AA1F0B
:101E4000BB1FEE1FFF1FA217B307E407F50720F023
:101E5000A21BB30BE40BF50B661F771F881F991F9E
:101E60001A9469F760957095809590959B01AC01E7
:101E7000BD01CF010895A29FB001B39FC001A39FF0
:101E8000700D811D1124911DB29F700D811D1124B3
:101E9000911D0895991B79E004C0991F961708F0C9
:101EA000961B881F7A95C9F780950895AA1BBB1BBE
:101EB00051E107C0AA1FBB1FA617B70710F0A61B4A
:101EC000B70B881F991F5A95A9F780959095BC016B
:101ED000CD01089597FB072E16F4009407D077FDE7
:101EE00009D00E94560F07FC05D03EF490958195CD
:101EF0009F4F0895709561957F4F0895EE0FFF1FD6
:0C1F00000590F491E02D0994F894FFCFB7
:101F0C001F1C1F1E1F1E1F1F1E1F1E1F0000000058
:101F1C0037029701C4018402F501D301E7010000E7
:101F2C0000001C05EF044B05C504E804D504C604E9
:041F3C000D0A00008A
:00000001FF
