:100000000C9462000C948A000C948A000C948A0070
:100010000C948A000C948A000C948A000C948A0038
:100020000C948A000C948A000C948A000C948A0028
:100030000C948A000C948A000C948A000C948A0018
:100040000C94A70C0C948A000C94170D0C94F10CD2
:100050000C948A000C948A000C948A000C948A00F8
:100060000C94490D0C948A00000000002400270025
:100070002A0000000000250028002B0000000000DE
:1000800023002600290004040404040404040202DA
:100090000202020203030303030301020408102007
:1000A0004080010204081020010204081020000012
:1000B0000008000201000003040700000000000027
:1000C0000000680E11241FBECFEFD8E0DEBFCDBF09
:1000D00011E0A0E0B1E0E8ECFAE202C005900D9278
:1000E000A834B107D9F722E0A8E4B1E001C01D921D
:1000F000AC3EB207E1F710E0C2E6D0E004C02197C1
:10010000FE010E947B12C136D107C9F70E94A10EE1
:100110000C9462150C940000833081F028F4813037
:1001200099F08230A9F008958730A9F08830C9F09D
:100130008430B1F4809180008F7D03C08091800075
:100140008F7780938000089584B58F7784BD08955C
:1001500084B58F7DFBCF8091B0008F778093B00006
:1001600008958091B0008F7DF9CFCF93DF93282F32
:1001700030E0F901E255FF4F8491F901E656FF4F57
:10018000D491F901EA57FF4FC491CC23A1F081111A
:100190000E948C00EC2FF0E0EE0FFF1FE458FF4FA1
:1001A000A591B491EC91ED2381E090E009F480E019
:1001B000DF91CF91089580E090E0FACF1F93CF9325
:1001C000DF93282F30E0F901E255FF4F8491F901C8
:1001D000E656FF4FD491F901EA57FF4FC491CC2363
:1001E000A9F0162F81110E948C00EC2FF0E0EE0F89
:1001F000FF1FEE58FF4FA591B4918FB7F894EC9183
:10020000111108C0D095DE23DC938FBFDF91CF9111
:100210001F910895DE2BF8CFCF93DF9390E0FC0180
:10022000E656FF4F24918A579F4FFC018491882303
:10023000D1F090E0880F991FFC01E859FF4FA5917C
:10024000B491FC01EE58FF4FC591D491623071F426
:100250009FB7F8943C91822F809583238C93E881FB
:100260002E2B28839FBFDF91CF9108958FB7F894ED
:10027000EC912E2B2C938FBFF6CF3FB7F894809143
:10028000CD019091CE01A091CF01B091D00126B5C2
:10029000A89B05C02F3F19F00196A11DB11D3FBFBE
:1002A000BA2FA92F982F8827BC01CD01620F711D8D
:1002B000811D911D42E0660F771F881F991F4A9587
:1002C000D1F708958F929F92AF92BF92CF92DF9213
:1002D000EF92FF926B017C010E943D014B015C019A
:1002E000C114D104E104F104B9F00E943D01681980
:1002F00079098A099B09683E73408105910580F35D
:1003000021E0C21AD108E108F10888EE880E83E0E6
:10031000981EA11CB11CE4CFFF90EF90DF90CF900E
:10032000BF90AF909F908F9008952FB7F8946091F1
:10033000C9017091CA018091CB019091CC012FBF6E
:10034000089508950895AF92BF92CF92DF92EF92F1
:10035000FF920F931F93CF93DF936C017B018B016F
:10036000040F151FEB015E01AE18BF08C017D107BF
:1003700059F06991D601ED91FC910190F081E02D49
:10038000C6010995892B79F7C501DF91CF911F919E
:100390000F91FF90EF90DF90CF90BF90AF900895B6
:1003A000FC01538D448D252F30E0842F90E0821B7B
:1003B000930B541710F0CF96089501970895FC0100
:1003C000918D828D981761F0A28DAE0FBF2FB11D58
:1003D0005D968C91928D9F5F9F73928F90E00895B0
:1003E0008FEF9FEF0895FC01918D828D981731F06A
:1003F000828DE80FF11D858D90E008958FEF9FEFBE
:100400000895FC01918D228D892F90E0805C9F4F93
:10041000821B91098F739927089583E492E00E94CB
:10042000010221E0892B09F420E0822F089580E069
:1004300090E0892B29F00E940D0281110C9400009C
:100440000895FC01A48DA80FB92FB11DA35ABF4F69
:100450002C91848D90E001968F739927848FA689C3
:10046000B7892C93A089B1898C91837080648C9317
:10047000938D848D981306C00288F389E02D8081C6
:100480008F7D80830895EF92FF920F931F93CF93F8
:10049000DF93EC0181E0888F9B8D8C8D98131AC0BF
:1004A000E889F989808185FF15C09FB7F894EE89A6
:1004B000FF896083E889F989808183708064808303
:1004C0009FBF81E090E0DF91CF911F910F91FF904E
:1004D000EF900895F62E0B8D10E00F5F1F4F0F73F6
:1004E0001127E02E8C8D8E110CC00FB607FCFACFB1
:1004F000E889F989808185FFF5CFCE010E9421022C
:10050000F1CFEB8DEC0FFD2FF11DE35AFF4FF08281
:100510009FB7F8940B8FEA89FB8980818062CFCFE7
:10052000CF93DF93EC01888D8823B9F0AA89BB892A
:10053000E889F9898C9185FD03C0808186FD0DC015
:100540000FB607FCF7CF8C9185FFF2CF808185FF36
:10055000EDCFCE010E942102E9CFDF91CF91089526
:1005600020917901260F3327331F21323105ECF416
:1005700020911902FC0190E080E0243069F082E0D3
:100580000895A09179012191AC01475A5E4FA40FC3
:10059000B52FB11D2C930196861798F380917901A0
:1005A000680F6093790180E0089581E008951092CA
:1005B000190281E0809318021092F30161E082E158
:1005C0000E94DE0061E083E10E94DE00E9EBF0E0E2
:1005D00080818E7F808380818D7F808388E480937B
:1005E000B80085E48093BC000895CF93DF9391E039
:1005F000909358018823B9F0C091B800D091BA0007
:100600008091BC008A7B8093BC0060E082E10E9404
:10061000DE0060E083E10E94DE000E94D702D093FA
:10062000BA00C093B800DF91CF9108958F929F9246
:10063000AF92BF92CF92DF92EF92FF920F931F93F0
:10064000CF93DF93D0914202D13208F0D7C0182F58
:10065000C09141020E943D016B017C018091190211
:1006600081116BC082E080931902109318028FEF02
:100670008093170210921602D0931502A1E2B2E005
:10068000E5EFF1E080E0D81391C01092F401809181
:10069000F401CC0FC82BC093F4018091F301813099
:1006A00009F088C01092F3010E943D016B017C01AA
:1006B0008091F4018093BB0080911B0290911C02F9
:1006C000A0911D02B0911E02892B8A2B8B2BA1F0C9
:1006D0000E943D0100911B0210911C0220911D02FD
:1006E00030911E026C197D098E099F0906171707A4
:1006F0002807390708F442C08091BC0083FDD8CF99
:1007000085EC8093BC000E943D016B017C018091CF
:100710001902823009F450C0809117028F3F09F40A
:100720006FC080911702803209F46CC0809117026B
:10073000803309F469C084E026C080911B02909147
:100740001C02A0911D02B0911E02892B8A2B8B2BBB
:1007500009F484CF0E943D0180901B0290901C02FE
:10076000A0901D02B0901E026C197D098E099F0990
:1007700086169706A806B90608F070CF80911A026F
:100780000E94F50285E0109220021092420210921F
:100790001F02DF91CF911F910F91FF90EF90DF909B
:1007A000CF90BF90AF909F908F9008959D9191931F
:1007B0008F5F69CF85EEA5CF80911B0290911C02BF
:1007C000A0911D02B0911E02892B8A2B8B2B09F45C
:1007D0009ECF0E943D0100911B0210911C022091AE
:1007E0001D0230911E026C197D098E099F090617A2
:1007F00017072807390708F08ACFC0CF81E0C3CF99
:1008000080E0C1CF82E0BFCF83E0BDCFCF92DF9247
:10081000EF92FF920F931F93CF93C82F813208F06E
:1008200096C00E943D016B017C01809119028111EB
:1008300069C081E080931902809318029FEF909322
:100840001702109216029C0F909315028093F401E8
:100850008091F401806D8093F4018091F3018130E7
:1008600009F077C01092F3010E943D016B017C01F9
:100870008091F4018093BB0080911B0290911C0237
:10088000A0911D02B0911E02892B8A2B8B2BA1F007
:100890000E943D0100911B0210911C0220911D023B
:1008A00030911E026C197D098E099F0906171707E2
:1008B0002807390708F447C08091BC0083FDD8CFD2
:1008C00085EC8093BC000E943D016B017C0180910E
:1008D0001902813009F43FC0809116028C1710F480
:1008E000C0911602A5EFB1E0E3EDF1E080E08C13DA
:1008F00054C08C2FCF911F910F91FF90EF90DF90FC
:10090000CF90089580911B0290911C02A0911D022E
:10091000B0911E02892B8A2B8B2B09F486CF0E9463
:100920003D0100911B0210911C0220911D0230918B
:100930001E026C197D098E099F09061717072807E3
:10094000390708F072CF80911A020E94F502C0E0C8
:10095000D0CF85EEB6CF80911B0290911C02A09162
:100960001D02B0911E02892B8A2B8B2B09F4AFCF6D
:100970000E943D0100911B0210911C0220911D025A
:1009800030911E026C197D098E099F090617170701
:100990002807390708F09BCFD6CF9D9191938F5FA1
:1009A000A6CF0895E091D2018091D101E81730F4EB
:1009B000F0E0ED52FE4F808190E008958FEF9FEFC1
:1009C00008959091D2018091D1012FEF3FEF9817B8
:1009D00048F4E92FF0E0ED52FE4F208130E09F5FB8
:1009E0009093D201C90108958091D1019091D201D3
:1009F000891B990B0895CF92DF92EF92FF920F938C
:100A00001F93CF93DF937C01CB018A0120911F02BA
:100A1000222389F0EB016B01C40ED51ECC15DD0538
:100A200069F06991D701ED91FC910190F081E02D81
:100A3000C7010995F3CF642F0E94B002C801DF916E
:100A4000CF911F910F91FF90EF90DF90CF9008957D
:100A5000CF93DF931F92CDB7DEB7698320911F023A
:100A60002223F9F020914202203258F021E030E0B8
:100A7000FC013383228390E080E00F90DF91CF91DF
:100A8000089580912002E82FF0E0EF5DFD4F9981FD
:100A900090838F5F809320028093420281E090E0F8
:100AA000ECCF61E0CE0101960E94B002F7CF90E05A
:100AB00080E008956093A4017093A5018093A6013E
:100AC0009093A701645D7E4F8F4F9F4F6093A0016D
:100AD0007093A1018093A2019093A30182E090E022
:100AE0009093AB018093AA010E94950160935401F9
:100AF00070935501809356019093570108950F9379
:100B00001F930E9495018B019C01409154015091CB
:100B1000550160915601709157018091A401909107
:100B2000A501A091A601B091A701041B150B260BEE
:100B3000370B083E134021053105C0F00196A11D79
:100B4000B11D8093A4019093A501A093A601B09339
:100B5000A70148515C4F6F4F7F4F40935401509312
:100B600055016093560170935701CBCF4091A0017E
:100B70005091A1016091A2017091A3018417950782
:100B8000A607B70770F0E091A801F091A90130978E
:100B900041F00995611571058105910569F00E9483
:100BA0005A056091A4017091A5018091A6019091D0
:100BB000A7011F910F9108958091A4019091A50123
:100BC000A091A601B091A701845D9E4FAF4FBF4F8A
:100BD0008093A0019093A101A093A201B093A301DF
:100BE00081E090E02091AA013091AB01232B11F418
:100BF00090E080E09093AB018093AA01D2CF4F9216
:100C00005F926F927F928F929F92AF92BF92CF929C
:100C1000DF92EF92FF920F931F93CF93DF93FC012C
:100C20001681A12FB0E020E833E341EE51E00E94AD
:100C300003124B015C01C2EBD7E09D0104E610E01A
:100C400080E9E82EFF24F394CE01825B974082175F
:100C500093079CF14580512C2E54384FC90164E60E
:100C600070E00E9453127C01C90160E971E00E94AA
:100C700053126C0104E011E0C1E0D0E0390183E0DF
:100C800068227724C415D5050CF040C0C230D105C8
:100C900071F56114710459F5E114F10419F4C114EA
:100CA000D10429F5B0E88B0EBBE39B1EB6E2AB1E68
:100CB000B11C21960F5F1F4FE5CFCE01837099279E
:100CC000892B99F4CE01B8010E945312892B31F47B
:100CD000CE01B7010E945312892B39F4A0E88A0E85
:100CE000A1E59A1EA1E0AA1EB11C2196ADCFD801A4
:100CF0008C91A82FB0E020E831E541E050E00E945F
:100D00000312860E971EA81EB91ED3CF228130E093
:100D1000A0E1BEE00E9438126B017C01218130E02D
:100D2000ACE3B0E00E943812C60ED71EE81EF91ED2
:100D30008081C80ED11CE11CF11CA481A150BB0B09
:100D400020E831E541E050E00E940E126C0D7D1D5F
:100D50008E1D9F1D680D791D8A1D9B1DDF91CF91F2
:100D60001F910F91FF90EF90DF90CF90BF90AF90C9
:100D70009F908F907F906F905F904F9008956F92AB
:100D80007F928F929F92AF92BF92CF92DF92EF921B
:100D9000FF920F931F93CF93DF936B017C01EA01C6
:100DA0008CE3882E912CA12CB12CC701A5019401B4
:100DB0000E9416126883CA01B901A50194010E941C
:100DC00016126983C701B60120E13EE040E050E021
:100DD0000E941612CA01B90128E130E040E050E05B
:100DE0000E9416126A83C701B60120E831E541E08E
:100DF00050E00E94161269017A01CA01B9016C5FC4
:100E00007F4F8F4F9F4F27E030E040E050E00E943F
:100E100016126F5F6B83812C912C540140E094E695
:100E2000692E712C00E911E0242F30E02E54384F48
:100E3000F901E370FF273097F9F4C901B3010E946B
:100E40005312892B31F4C901B8010E945312892B26
:100E500099F48EE691E0A0E0B0E0880E991EAA1EFB
:100E6000BB1ED501C401AA27BB27C816D906EA06AE
:100E7000FB0638F04F5FD8CF8DE691E0A0E0B0E000
:100E8000ECCF4E83C90164E670E00E9453128C01DE
:100E9000C90160E971E00E945312309729F40115ED
:100EA0001105E1F40097D1F04DE651E060E070E00B
:100EB000841A950AA60AB70AC818D908EA08FB08CE
:100EC000A4E0B1E020E0213071F4309791F50115F4
:100ED000110511F4009769F54DE106C04EE651E0A9
:100EE00060E070E0E5CF4C9150E070E060E031E010
:100EF000320FC416D506E606F70640F0C41AD50A26
:100F0000E60AF70A1196232F3C30E9F62F5F2D836E
:100F1000C394CC82DF91CF911F910F91FF90EF90FE
:100F2000DF90CF90BF90AF909F908F907F906F9009
:100F300008954CE1D9CFCF92DF92EF92FF92C0900B
:100F40005001D0905101E0905201F0905301C6162B
:100F5000D706E806F90671F06B017C014CEA51E016
:100F60000E94BF06C0925001D0925101E0925201FE
:100F7000F0925301FF90EF90DF90CF9008950E9480
:100F80007F050E949B078091B20190E08E54984F9C
:100F900008950E947F050E949B078091AC0190E01C
:100FA00008950E947F050E949B078091AD0190E00B
:100FB00008950E947F050E949B078091AE0190E0FA
:100FC0000895282F30E094E0359527959A95E1F71C
:100FD000922F990F990F291B220F820F089561E01C
:100FE0008130910509F44DC060E08230910521F017
:100FF0008330910551F461E08EE00E94DE0061E0F3
:101000008FE00E94DE0060E010C060E08430910557
:1010100021F08530910571F461E08EE00E94DE00E0
:1010200060E08FE00E94DE0061E080E10E94DE006F
:1010300060E021C060E08630910521F087309105A5
:1010400031F461E08EE00E94DE0061E0EACF60E012
:101050008830910521F08930910581F461E08EE0BE
:101060000E94DE0060E08FE00E94DE0060E080E130
:101070000E94DE0061E081E10C94DE00892B31F4F6
:1010800060E08EE00E94DE0060E0BACF089561E08B
:101090008130910509F462C060E08230910549F425
:1010A00083E00E94DE0061E084E00E94DE0060E0F8
:1010B0000BC08330910569F483E00E94DE0060E09C
:1010C00084E00E94DE0061E085E00E94DE0060E0D6
:1010D0000FC08430910589F483E00E94DE0060E057
:1010E00084E00E94DE0060E085E00E94DE0061E0B6
:1010F00086E00E94DE0060E013C085309105A9F40F
:1011000083E00E94DE0060E084E00E94DE0060E098
:1011100085E00E94DE0060E086E00E94DE0061E083
:1011200087E00E94DE0060E016C00697B9F483E015
:101130000E94DE0060E084E00E94DE0060E085E066
:101140000E94DE0060E086E00E94DE0060E087E052
:101150000E94DE0061E088E00C94DE0083E00E94E3
:10116000DE0060E0A1CFFC0101900020E9F731979B
:10117000AF01481B590BBC0183E492E00C94A3011E
:10118000CF93DF930E94B308EC0184E391E00E94C7
:10119000B3088C0F9D1FDF91CF9108958F929F927E
:1011A000AF92BF92CF92DF92EF92FF920F931F9375
:1011B000CF93DF934C010E9495016B017C01C0929B
:1011C0004C01D0924D01E0924E01F0924F01C0923D
:1011D0004801D0924901E0924A01F0924B01092C5A
:1011E000000CAA08BB088091480190914901A09188
:1011F0004A01B0914B018C199D09AE09BF098816AF
:101200009906AA06BB0610F1C1E0D0E0CE010E940B
:10121000470809E010E0C8010E94EF076AE070E0AB
:1012200080E090E00E94620101501109A0F7219630
:10123000C730D10559F70E9495016093480170931A
:10124000490180934A0190934B01CDCF90E080E01B
:101250000E9447086AEF70E080E090E0DF91CF9154
:101260001F910F91FF90EF90DF90CF90BF90AF90C4
:101270009F908F900C946201CF93DF93CDB7DEB730
:10128000D2500FB6F894DEBF0FBECDBF9E01295FCE
:101290003D4F47E351E060E072E0CE0101960E94CD
:1012A0008112CE0101960E94B308DE5F0FB6F8945A
:1012B000DEBF0FBECDBFDF91CF910895CF93DF93F7
:1012C00000D000D000D01F92CDB7DEB781E0809370
:1012D0001F0288E68093410210922002109242027F
:1012E00060E080EE92E00E94280581E00E941603F3
:1012F000811147C087E00E9406041092D2018093BA
:10130000D10180EE92E00E94E1048F770E94E10714
:10131000898380EE92E00E94E1040E94E1078A83C3
:1013200080EE92E00E94E1048F7B0E94E1078B83B4
:1013300080EE92E00E94E1048C8380EE92E00E94B5
:10134000E1040E94E1078D8380EE92E00E94E104B7
:101350008F770E94E1078E8380EE92E00E94E10485
:101360000E94E107825E8F83CE0101960E94FF05F5
:1013700027960FB6F894DEBF0FBECDBFDF91CF9199
:10138000089560E070E0CB01F3CF0F931F93CF93EC
:10139000DF93EC0111E010931F0288E68093410275
:1013A000109220021092420260E080EE92E00E94D1
:1013B000280528810AE0822F602F0E944712682F9B
:1013C000660F680F660F620F80EE92E00E9428059C
:1013D0002981822F602F0E944712682F660F680FA5
:1013E000660F620F80EE92E00E9428052A81822F0C
:1013F000602F0E944712682F660F680F660F620FFA
:1014000080EE92E00E9428056B8180EE92E00E94BF
:1014100028052C81822F602F0E944712682F660FAB
:10142000680F660F620F80EE92E00E9428052D8102
:10143000822F602F0E944712682F660F680F660F79
:10144000620F80EE92E00E9428052E812E51822F9D
:10145000602F0E944712682F660F680F660F620F99
:1014600080EE92E00E94280581E00E941603D82FAA
:1014700010931F0210922002109242026FE080EE41
:1014800092E00E94280581E00E941603C0E08111CD
:101490000CC081E00E9406041092D2018093D10119
:1014A00080EE92E00E94E104C82F81E080931F0249
:1014B00010922002109242026FE080EE92E00E94B1
:1014C00028056C2F6F7780EE92E00E94280581E05E
:1014D0000E9416038D2FDF91CF911F910F910895D8
:1014E000CF92DF92EF92FF926B017C01C114D10485
:1014F000E104F10441F00E948C11A70196010E94C1
:10150000E4116B017C01C701B601FF90EF90DF9001
:10151000CF900895CF92DF92EF92FF926C010E94DC
:10152000950160934C0170934D0180934E0190930F
:101530004F01609348017093490180934A01909351
:101540004B010D2C000CEE08FF0880914801909192
:101550004901A0914A01B0914B0140914C01509139
:101560004D0160914E0170914F01841B950BA60BAC
:10157000B70BC816D906EA06FB0608F47DC081E061
:1015800090E00E94470862E070E080E090E00E94F6
:10159000700ACB010E94EF076AE070E080E090E003
:1015A0000E94620182E090E00E94470862E070E0E1
:1015B00080E090E00E94700ACB010E94EF076AE091
:1015C00070E080E090E00E94620183E090E00E9481
:1015D000470862E070E080E090E00E94700ACB0172
:1015E0000E94EF076AE070E080E090E00E946201F4
:1015F00084E090E00E94470862E070E080E090E0C4
:101600000E94700ACB010E94EF076AE070E080E060
:1016100090E00E94620185E090E00E94470862E04D
:1016200070E080E090E00E94700ACB010E94EF071A
:101630006AE070E080E090E00E94620186E090E065
:101640000E94470862E070E080E090E00E94700A2B
:10165000CB010E94EF076AE070E080E090E00E941A
:1016600062010E9495016093480170934901809343
:101670004A0190934B0169CF90E080E00E944708B7
:101680006AEF70E080E090E0FF90EF90DF90CF9005
:101690000C946201CF92DF92EF92FF92CF93DF938F
:1016A0006C010E94950160934C0170934D018093F1
:1016B0004E0190934F0160934801709349018093CC
:1016C0004A0190934B010D2C000CEE08FF0880910D
:1016D000480190914901A0914A01B0914B0140917C
:1016E0004C0150914D0160914E0170914F01841B4E
:1016F000950BA60BB70BC816D906EA06FB0608F42D
:10170000DEC06AE070E080E090E00E94700A7093B2
:10171000BA016093B9016AE070E080E090E00E9455
:10172000700A7093B8016093B7016AE070E080E0DE
:1017300090E00E94700A7093BC016093BB016AE064
:1017400070E080E090E00E94700A7093BE016093A8
:10175000BD016AE070E080E090E00E94700A709342
:10176000B6016093B5016AE070E080E090E00E940D
:10177000700A7093B4016093B30181E090E00E941D
:1017800047088091B7019091B8010E94EF076AE085
:1017900070E080E090E00E94620190E080E00E94B2
:1017A000470863E070E080E090E00E94620182E020
:1017B00090E00E9447088091B9019091BA010E947F
:1017C000EF076AE070E080E090E00E94620190E044
:1017D00080E00E94470863E070E080E090E00E94B3
:1017E000620183E090E00E9447088091BD019091E2
:1017F000BE010E94EF076AE070E080E090E00E9486
:10180000620190E080E00E94470863E070E080E0C1
:1018100090E00E94620184E090E00E944708C0913D
:10182000BB01D091BC01CE010E94EF076AE070E0DD
:1018300080E090E00E94620190E080E00E94470812
:1018400063E070E080E090E00E94620185E090E05B
:101850000E944708CE010E94EF076AE070E080E036
:1018600090E00E94620190E080E00E94470863E0FF
:1018700070E080E090E00E94620186E090E00E94CB
:101880004708CE010E94EF076AE070E080E090E038
:101890000E94620190E080E00E94470863E070E0EF
:1018A00080E090E00E9462010E94950160934801EF
:1018B0007093490180934A0190934B0108CF90E0C7
:1018C00080E00E9447086AEF70E080E090E0DF91DE
:1018D000CF91FF90EF90DF90CF900C94620185ED57
:1018E0008093BC0080911B0290911C02A0911D026C
:1018F000B0911E020796A11DB11D23E0B695A795D4
:10190000979587952A95D1F72091BC0024FD03C0B7
:1019100010921902089540911B0250911C0260918F
:101920001D0270911E02452B462B472B69F3009731
:10193000A105B10541F02AE22A95F1F700C001970F
:10194000A109B109E1CF80911A020C94F5021F920E
:101950000F920FB60F9211242F933F938F939F9363
:10196000AF93BF938091C9019091CA01A091CB011F
:10197000B091CC013091C80123E0230F2D3758F5E9
:101980000196A11DB11D2093C8018093C9019093B8
:10199000CA01A093CB01B093CC018091CD0190916D
:1019A000CE01A091CF01B091D0010196A11DB11D32
:1019B0008093CD019093CE01A093CF01B093D0013D
:1019C000BF91AF919F918F913F912F910F900FBE3B
:1019D0000F901F90189526E8230F0296A11DB11DA8
:1019E000D2CF1F920F920FB60F9211242F933F93D5
:1019F0004F935F936F937F938F939F93AF93BF9317
:101A0000EF93FF9383E492E00E942102FF91EF9114
:101A1000BF91AF919F918F917F916F915F914F9106
:101A20003F912F910F900FBE0F901F9018951F920E
:101A30000F920FB60F9211242F938F939F93EF93D2
:101A4000FF93E0915302F09154028081E09159029A
:101A5000F0915A0282FD1BC0908180915C028F5FE1
:101A60008F7320915D02821741F0E0915C02F0E0FB
:101A7000ED5BFD4F958F80935C02FF91EF919F91FD
:101A80008F912F910F900FBE0F901F90189580810E
:101A9000F4CF1F920F920FB60F9211242F933F9302
:101AA0004F935F936F937F938F939F93AF93BF9366
:101AB000EF93FF938091B900887F803609F44AC084
:101AC000F0F5883209F4A7C018F5803109F49BC0FD
:101AD000B8F4882309F4F9C0883009F494C0FF9160
:101AE000EF91BF91AF919F918F917F916F915F9196
:101AF0004F913F912F910F900FBE0F901F9018950F
:101B0000883109F488C0803251F78093170214C0DD
:101B1000803409F49DC040F48033B9F38833F9F67A
:101B20008093170285ECB0C0803509F485C08835F4
:101B300009F496C0883499F60E946F0CD0CF88398A
:101B400009F48CC038F5883729F050F4883611F044
:101B5000803729F683E08093190210929B0157C0C9
:101B6000883809F47BC0803919F0803809F0B7CF84
:101B700080919B01803208F071C0E0919B0181E06F
:101B80008E0F80939B018091BB00F0E0E558FE4FE3
:101B900080833DC0803B39F0E0F4803A09F479C09D
:101BA000883A09F09CCF84E08093190210927A0160
:101BB00010927901E0919E01F0919F010995809129
:101BC000790181110FC081E0809379011092590150
:101BD00009C0803C09F4A6CF883C09F4A3CF883B18
:101BE00009F07DCFE0917A0181E08E0F80937A0138
:101BF000F0E0E75AFE4F80818093BB0090917A011C
:101C00008091790129C08091F4018093BB0085EC1B
:101C10008093BC0064CF90911602809115029817B2
:101C200058F5E091160281E08E0F80931602F0E0E5
:101C3000EB50FE4F8081E9CFE091160281E08E0FDC
:101C4000809316028091BB00F0E0EB50FE4F808342
:101C500090911602809115029817C8F285E8D8CFA6
:101C6000E091160281E08E0F809316028091BB00F6
:101C7000F0E0EB50FE4F80838091180281115CCF21
:101C800081E08093F30184EA8093BC0010921902F2
:101C900026CF85EC8093BC001092190280919B01A5
:101CA000803230F4E0919B01F0E0E558FE4F108265
:101CB00060919B0170E0E0919C01F0919D018BE7A8
:101CC00091E0099510929B010ACF1092170234CF30
:101CD000E3E4F2E01382128288EE93E0A0E0B0E049
:101CE00084839583A683B78324E131E03183208305
:101CF00025EC30E03587248724EC30E037872687D1
:101D000020EC30E0318B208B21EC30E0338B228BC8
:101D100022EC30E0358B248B26EC30E0378B268BA1
:101D2000118E128E138E148EE0EEF2E01382128268
:101D300084839583A683B78386E291E09183808331
:101D40000895CF93DF9300D000D000D01F92CDB77D
:101D5000DEB7789484B5826084BD84B5816084BD2B
:101D600085B5826085BD85B5816085BD80916E0039
:101D7000816080936E00109281008091810082606A
:101D800080938100809181008160809381008091A7
:101D900080008160809380008091B1008460809396
:101DA000B1008091B00081608093B00080917A0092
:101DB000846080937A0080917A00826080937A00B8
:101DC00080917A00816080937A0080917A008068A7
:101DD00080937A001092C1001092D2011092D1012A
:101DE00010922002109242020E94D70281EA91E0F2
:101DF00090939F0180939E0182EA91E090939D01D0
:101E000080939C018EE599E09093A9018093A801AD
:101E10008091A4019091A501A091A601B091A70184
:101E20008093A0019093A101A093A201B093A3017C
:101E30000E947F050E947F0561E082E00E940C0104
:101E400061E083E00E940C0161E084E00E940C01EB
:101E500061E085E00E940C0161E086E00E940C01D7
:101E600061E087E00E940C0161E088E00E940C01C3
:101E700061E08DE00E940C0162E089E00E940C01AB
:101E800062E08AE00E940C0161E08EE00E940C0199
:101E900061E08FE00E940C0161E080E10E940C0192
:101EA00061E081E10E940C010E94950161157105BC
:101EB0008105910511F00E94DB1190E080E00E9405
:101EC000470868EE73E080E090E00E94620180EDD8
:101ED00097E00E944A0B80ED97E00E948A0A80ED0D
:101EE00097E00E94CE080AE010E080E0282E80E013
:101EF000382E66246394712C22E0422E512C89E006
:101F00000E94B500892B31F464E670E080E090E037
:101F10000E94620189E00E94B500892B09F055C03A
:101F20000E94D9078F5F8093C3010E94D1078093DD
:101F3000C2010E94C9078093C1010E947F050E94CF
:101F40009B078091B0018093C5010E947F050E948C
:101F50009B078091B1018093C6010E94BF078093C7
:101F6000C70199276091C6015091C5012091C10117
:101F70003091C2014091C301843691050CF4A5C093
:101F8000825B97408093B2016093B1015093B0019E
:101F90004093AE013093AD012093AC018CEA91E007
:101FA0000E94FF050E945A050E947F05AE014F5F07
:101FB0005F4F0E94BF06CE0101960E94C50968ECE2
:101FC00070E080E090E00E9462018AE00E94B5002B
:101FD000892B31F464E670E080E090E00E946201B9
:101FE0008AE00E94B500892B09F055C00E94D907EC
:101FF0008093C3010E94D1078F5F8093C2010E942A
:10200000C9078093C1010E947F050E949B078091B0
:10201000B0018093C5010E947F050E949B078091BB
:10202000B1018093C6010E94BF078093C701992721
:102030006091C6015091C5012091C1013091C2014A
:102040004091C301843691050CF441C0825B9740F6
:102050008093B2016093B1015093B0014093AE01FF
:102060003093AD012093AC018CEA91E00E94FF0512
:102070000E945A050E947F05AE014F5F5F4F0E948C
:10208000BF06CE0101960E94C50968EC70E080E0B1
:1020900090E00E9462010E94D9078D309105CCF436
:1020A0009093C0018093BF018091BF019091C001C6
:1020B0008A30910584F07092BE016092BD010A974A
:1020C0009093BC018093BB0111C04E965BCF4E969E
:1020D000BFCF0C97E5CF009709F0BDC07092BE014D
:1020E0006092BD015092BC014092BB010E94D10799
:1020F000B8010E9453129093BA018093B901CB01A9
:10210000B8010E9453129093B8018093B7010E94C6
:10211000C907B8010E9453127C019093B6018093C5
:10212000B501CB01B8010E9453126C019093B40128
:102130008093B30181E090E00E9447088091BD0147
:102140009091BE010E94EF0763E070E080E090E0B4
:102150000E94620182E090E00E9447088091BB01EA
:102160009091BC010E94EF0763E070E080E090E096
:102170000E94620183E090E00E9447088090B701CE
:102180009090B801C4010E94EF0763E070E080E026
:1021900090E00E94620184E090E00E944708A090D5
:1021A000B901B090BA01C5010E94EF0763E070E089
:1021B00080E090E00E94620185E090E00E94470884
:1021C000C6010E94EF0763E070E080E090E00E94AB
:1021D000620186E090E00E944708C7010E94EF0775
:1021E00063E070E080E090E00E9462018928B9F429
:1021F000AB28A9F4CD2899F4EF2889F463E070E0C6
:1022000080E090E00E94700A6F5F7F4F8F4F9F4F7A
:102210006130710529F580ED97E00E944A0B0E941C
:10222000C90780FD04C060E08DE00E94DE000E94CE
:10223000C90780FF04C061E08DE00E94DE00211428
:10224000310409F45CCE0E940D02882309F457CEB4
:102250000E94000054CE1092BE011092BD0130CFFA
:102260006230710529F480ED97E00E948A0AD7CF89
:1022700063307105A1F680ED97E00E94CE08CFCFC4
:102280008F929F92AF92BF92CF92DF92EF92FF9286
:10229000CF93DF93EC01688179818A819B816115FD
:1022A00071058105910521F464E279ED8BE597E0F4
:1022B0002DE133EF41E050E00E94E41149015A0161
:1022C0009B01AC01A7EAB1E40E9403126B017C01FF
:1022D000ACEEB4EFA50194010E941112C60ED71EF8
:1022E000E81EF91EF7FE06C081E0C81AD108E10811
:1022F00080E8F80AC882D982EA82FB82C701B60167
:102300009F77DF91CF91FF90EF90DF90CF90BF90BC
:10231000AF909F908F9008958F929F92AF92BF92AF
:10232000CF92DF92EF92FF926091000170910101D4
:10233000809102019091030161157105810591055C
:1023400021F464E279ED8BE597E02DE133EF41E094
:1023500050E00E94E41149015A019B01AC01A7EA37
:10236000B1E40E9403126B017C01ACEEB4EFA50155
:1023700094010E941112C60ED71EE81EF91EF7FE28
:1023800006C081E0C81AD108E10880E8F80AC092C6
:102390000001D0920101E0920201F0920301C70115
:1023A000B6019F77FF90EF90DF90CF90BF90AF90F6
:1023B0009F908F9008956093000170930101809326
:1023C0000201909303010895052E97FB1EF40094DB
:1023D0000E94FB1157FD07D00E94161207FC03D084
:1023E0004EF40C94FB1150954095309521953F4F3C
:1023F0004F4F5F4F089590958095709561957F4FF1
:102400008F4F9F4F08950E943812A59F900DB49F43
:10241000900DA49F800D911D11240895B7FF0C9479
:1024200003120E940312821B930B0895A1E21A2E3D
:10243000AA1BBB1BFD010DC0AA1FBB1FEE1FFF1F68
:10244000A217B307E407F50720F0A21BB30BE40BB8
:10245000F50B661F771F881F991F1A9469F76095FF
:102460007095809590959B01AC01BD01CF010895B9
:10247000A29FB001B39FC001A39F700D811D1124C5
:10248000911DB29F700D811D1124911D0895991BFE
:1024900079E004C0991F961708F0961B881F7A955B
:1024A000C9F78095089597FB072E16F4009407D07E
:1024B00077FD09D00E94671207FC05D03EF4909585
:1024C00081959F4F0895709561957F4F0895AA1B40
:1024D000BB1B51E107C0AA1FBB1FA617B70710F00F
:1024E000A61BB70B881F991F5A95A9F78095909541
:1024F000BC01CD010895EE0FFF1F0590F491E02D72
:102500000994AEE0B0E0E7E8F2E10C9439158C01F3
:10251000FA0186E08C831A83098377FF02C060E0AA
:1025200070E8615071097E836D83A901BF01CE01FE
:1025300001960E94AD124D815E8157FD0AC02F8128
:102540003885421753070CF49A01020F131FF80144
:1025500010822E96E4E00C945515ABE0B0E0E3EB6E
:10256000F2E10C942B157C013B018A01FC011782DE
:102570001682838181FFC8C1CE0101965C01F701FB
:102580009381F30193FD859193FF81913F0188230E
:1025900009F453C1853239F493FD859193FF8191FC
:1025A0003F01853229F4B70190E00E949D14E7CFE6
:1025B000912C212C312CFFE1F31538F08B3211F1E5
:1025C00090F4803209F1833229F137FC3CC020EDD0
:1025D000280F2A3050F536FE20C08AE0989E200D44
:1025E0001124922E06C08D3291F0803371F76894D9
:1025F00030F8F30193FD859193FF81913F018111A3
:10260000DACF21C0689431F8689432F8F2CF689438
:1026100033F8EFCF689434F8ECCFEAE02E9E200D2B
:102620001124222E689435F8E4CF8E3229F436FC3A
:1026300004C1689436F8DDCF8C3619F4689437F805
:10264000D8CF8836B1F2982F9F7D95549330E0F023
:102650008336A1F18337C1F1833509F063C02801C6
:10266000F2E04F0E511CF801C080D180692D70E05E
:1026700036FC02C06FEF7FEFC6010E9487144C0149
:10268000689437F882010AC00C5F1F4FFFE3F9839B
:1026900088248394912C6501E89437F833FE2DC08B
:1026A000522C8114910471F5552009F468CFB701BB
:1026B00080E290E00E949D145A94F6CFF801808148
:1026C00089830E5F1F4FE4CF2801F2E04F0E511CAB
:1026D000F801C080D180692D70E036FC02C06FEF38
:1026E0007FEFC6010E9492144C018201D5CFB70141
:1026F00080E290E00E949D142A942814190409F0A5
:10270000B0F7CECFF60137FC859137FE81916F018E
:10271000B70190E00E949D1451105A94F1E08F1A75
:102720009108BFCF843619F0893609F077C0F801D7
:1027300037FE6BC060817181828193810C5F1F4F76
:10274000F32DFF763F2E97FF09C0909580957095E9
:1027500061957F4F8F4F9F4F689437F82AE030E0A4
:10276000A5010E94CD14C82ECA188C2C432C36FE0D
:102770000CC0E89440F8C91440F434FE05C032FCA3
:1027800003C0F32DFE7E4F2E892C44FE95C0FE0122
:10279000EC0DF11D8081803309F087C0242D297E46
:1027A000422E842D8870582E43FC95C040FE8FC069
:1027B0009C2C821418F42C0C922C981844FE91C076
:1027C000B70180E390E00E949D1442FE09C088E7B3
:1027D00090E041FE02C088E590E0B7010E949D14A0
:1027E000C91408F48AC0CA94D12C9FEFC91AD90A17
:1027F000CA0CDB1CF60182916F01B70190E00E94C8
:102800009D14AC14BD04B1F74FCF60817181072EC8
:10281000000C880B990B0E5F1F4F92CFD32CE894BE
:10282000D4F82AE030E0853739F1232D297FD22EE4
:102830008F3601F148F48835A9F0F7018681978138
:102840002B96E2E10C944715803749F08837A9F7B9
:10285000D4FE02C06894D2F820E130E00DC0689444
:10286000D4F8F6CF34FE03C0822F8660D82E20E144
:1028700032E002C028E030E0F801D7FE0FC06081EE
:102880007181828193810C5F1F4FA5010E94CD143D
:10289000C82ECA183D2CE89437F867CF6081718143
:1028A00090E080E00E5F1F4FF0CF42FC02C08394A7
:1028B00078CF8394839475CF842D867809F471CF73
:1028C000F6CFB70180E290E00E949D1483948214B9
:1028D000C0F3512C73CF522C5818821408F46ECFC9
:1028E000F8CF842D867809F47BCF8BE241FE80E21D
:1028F00047FC8DE2B70190E071CFB70180E390E033
:102900000E949D149A946CCF8FEF9FEF99CFFC019A
:102910000590615070400110D8F7809590958E0F0A
:102920009F1F0895FC016150704001900110D8F77D
:10293000809590958E0F9F1F08950F931F93CF93AF
:10294000DF93182F092FEB018B8181FD09C01FEF49
:102950000FEF812F902FDF91CF911F910F9108954D
:1029600082FF14C02E813F818C819D8128173907F9
:102970003CF4E881F981CF01019699838883108323
:102980008E819F8101969F838E83E3CFE885F985B1
:10299000812F0995892BA1F3DACFFA01AA272830D4
:1029A00051F1203181F1E8946F936E7F6E5F7F4F1C
:1029B0008F4F9F4FAF4FB1E03ED0B4E03CD0670F98
:1029C000781F891F9A1FA11D680F791F8A1F911DEB
:1029D000A11D6A0F711D811D911DA11D20D009F43B
:1029E00068943F912AE0269F11243019305D31937D
:1029F000DEF6CF010895462F4770405D4193B3E066
:102A00000FD0C9F7F6CF462F4F70405D4A3318F00C
:102A1000495D31FD4052419302D0A9F7EACFB4E0BD
:102A2000A6959795879577956795BA95C9F7009775
:102A30006105710508959B01AC010A2E0694579516
:102A4000479537952795BA95C9F7620F731F841F6D
:102A5000951FA01D08952F923F924F925F926F9203
:102A60007F928F929F92AF92BF92CF92DF92EF921E
:102A7000FF920F931F93CF93DF93CDB7DEB7CA1B9F
:102A8000DB0B0FB6F894DEBF0FBECDBF09942A88CA
:102A9000398848885F846E847D848C849B84AA8472
:102AA000B984C884DF80EE80FD800C811B81AA81FF
:102AB000B981CE0FD11D0FB6F894DEBF0FBECDBFCA
:082AC000ED010895F894FFCF29
:102AC800010000001F1C1F1E1F1E1F1F1E1F1E1F90
:102AD800000000004302A301D00190020102DF01BF
:102AE800F301000000002805FB045705D104F40495
:102AF800E104D2040D0A00256425643A256425649E
:082B08003A256425640A00006F
:00000001FF
