:020000040000FA
:100000000C9462000C948A000C948A000C948A0070
:100010000C948A000C948A000C948A000C948A0038
:100020000C948A000C948A000C948A000C948A0028
:100030000C948A000C948A000C948A000C948A0018
:100040000C94780C0C948A000C94E80C0C94C20C60
:100050000C948A000C948A000C948A000C948A00F8
:100060000C941A0D0C948A00000000002400270054
:100070002A0000000000250028002B0000000000DE
:1000800023002600290004040404040404040202DA
:100090000202020203030303030301020408102007
:1000A0004080010204081020010204081020000012
:1000B0000008000201000003040700000000000027
:1000C0000000390E11241FBECFEFD8E0DEBFCDBF38
:1000D00011E0A0E0B1E0ECEBF4E202C005900D927B
:1000E000A433B107D9F722E0A4E3B1E001C01D9227
:1000F000AC3DB207E1F710E0C2E6D0E004C02197C2
:10010000FE010E945612C136D107C9F70E94720E35
:100110000C945C120C940000FC01538D448D252F2F
:1001200030E0842F90E0821B930B541710F0CF9691
:10013000089501970895FC01918D828D981761F0C3
:10014000A28DAE0FBF2FB11D5D968C91928D9F5FDA
:100150009F73928F90E008958FEF9FEF0895FC01B9
:10016000918D828D981731F0828DE80FF11D858D6C
:1001700090E008958FEF9FEF0895FC01918D228DFF
:10018000892F90E0805C9F4F821B91098F73992784
:100190000895FC01A48DA80FB92FB11DA35ABF4F1C
:1001A0002C91848D90E001968F739927848FA68976
:1001B000B7892C93A089B1898C91837080648C93CA
:1001C000938D848D981306C00288F389E02D808179
:1001D0008F7D80830895EF92FF920F931F93CF93AB
:1001E000DF93EC0181E0888F9B8D8C8D98131AC072
:1001F000E889F989808185FF15C09FB7F894EE8959
:10020000FF896083E889F9898081837080648083B5
:100210009FBF81E090E0DF91CF911F910F91FF9000
:10022000EF900895F62E0B8D10E00F5F1F4F0F73A8
:100230001127E02E8C8D8E110CC00FB607FCFACF63
:10024000E889F989808185FFF5CFCE010E94C90038
:10025000F1CFEB8DEC0FFD2FF11DE35AFF4FF08234
:100260009FB7F8940B8FEA89FB8980818062CFCF9A
:10027000CF93DF93EC01888D8823B9F0AA89BB89DD
:10028000E889F9898C9185FD03C0808186FD0DC0C8
:100290000FB607FCF7CF8C9185FFF2CF808185FFE9
:1002A000EDCFCE010E94C900E9CFDF91CF91089533
:1002B00083E392E00E94BD0021E0892B09F420E055
:1002C000822F089580E090E0892B29F00E94580148
:1002D00081110C9400000895833081F028F481305E
:1002E00099F08230A9F008958730A9F08830C9F0DC
:1002F0008430B1F4809180008F7D03C080918000B4
:100300008F7780938000089584B58F7784BD08959A
:1003100084B58F7DFBCF8091B0008F778093B00044
:1003200008958091B0008F7DF9CFCF93DF93282F70
:1003300030E0F901E255FF4F8491F901E656FF4F95
:10034000D491F901EA57FF4FC491CC23A1F0811158
:100350000E946C01EC2FF0E0EE0FFF1FE458FF4FFE
:10036000A591B491EC91ED2381E090E009F480E057
:10037000DF91CF91089580E090E0FACF1F93CF9363
:10038000DF93282F30E0F901E255FF4F8491F90106
:10039000E656FF4FD491F901EA57FF4FC491CC23A1
:1003A000A9F0162F81110E946C01EC2FF0E0EE0FE6
:1003B000FF1FEE58FF4FA591B4918FB7F894EC91C1
:1003C000111108C0D095DE23DC938FBFDF91CF9150
:1003D0001F910895DE2BF8CFCF93DF9390E0FC01BF
:1003E000E656FF4F24918A579F4FFC018491882342
:1003F000D1F090E0880F991FFC01E859FF4FA591BB
:10040000B491FC01EE58FF4FC591D491623071F464
:100410009FB7F8943C91822F809583238C93E88139
:100420002E2B28839FBFDF91CF9108958FB7F8942B
:10043000EC912E2B2C938FBFF6CF3FB7F894809181
:10044000A9019091AA01A091AB01B091AC0126B590
:10045000A89B05C02F3F19F00196A11DB11D3FBFFC
:10046000BA2FA92F982F8827BC01CD01620F711DCB
:10047000811D911D42E0660F771F881F991F4A95C5
:10048000D1F708958F929F92AF92BF92CF92DF9251
:10049000EF92FF924B015C010E941D026B017C01F7
:1004A0000E941D026C197D098E099F09683E7340E8
:1004B00081059105A8F321E0821A9108A108B108ED
:1004C00088EEC80E83E0D81EE11CF11C8114910453
:1004D000A104B10429F7FF90EF90DF90CF90BF9077
:1004E000AF909F908F9008952FB7F8946091A501D9
:1004F0007091A6018091A7019091A8012FBF089546
:1005000008950895AF92BF92CF92DF92EF92FF923B
:100510000F931F93CF93DF936C017B018B01040F2B
:10052000151FEB015E01AE18BF08C017D10759F0C7
:100530006991D601ED91FC910190F081E02DC60109
:100540000995892B79F7C501DF91CF911F910F9103
:10055000FF90EF90DF90CF90BF90AF9008952091E3
:100560005D01260F3327331F21323105ECF4209132
:10057000F501FC0190E080E0243069F082E008950C
:10058000A0915D012191AC01435C5E4FA40FB52F9A
:10059000B11D2C930196861798F380915D01680F29
:1005A00060935D0180E0089581E008951092F50167
:1005B00081E08093F4011092CF0161E082E10E941A
:1005C000BE0161E083E10E94BE01E9EBF0E08081C1
:1005D0008E7F808380818D7F808388E48093B800C4
:1005E00085E48093BC000895CF93DF9391E09093CE
:1005F0003C018823B9F0C091B800D091BA00809135
:10060000BC008A7B8093BC0060E082E10E94BE0156
:1006100060E083E10E94BE010E94D602D093BA003E
:10062000C093B800DF91CF9108958F929F92AF92BF
:10063000BF92CF92DF92EF92FF920F931F93CF93CF
:10064000DF93D0911E02D13208F0D7C0182FC0918D
:100650001D020E941D026B017C018091F501811138
:100660006BC082E08093F5011093F4018FEF8093CB
:10067000F3011092F201D093F101ADEFB1E0E1EDA1
:10068000F1E080E0D81391C01092D0018091D001A8
:10069000CC0FC82BC093D0018091CF01813009F0DD
:1006A00088C01092CF010E941D026B017C018091D5
:1006B000D0018093BB008091F7019091F801A09147
:1006C000F901B091FA01892B8A2B8B2BA1F00E94A2
:1006D0001D020091F7011091F8012091F90130916C
:1006E000FA016C197D098E099F090617170728075B
:1006F000390708F442C08091BC0083FDD8CF85EC57
:100700008093BC000E941D026B017C018091F50169
:10071000823009F450C08091F3018F3F09F46FC01B
:100720008091F301803209F46CC08091F301803331
:1007300009F469C084E026C08091F7019091F80126
:10074000A091F901B091FA01892B8A2B8B2B09F426
:1007500084CF0E941D028090F7019090F801A09034
:10076000F901B090FA016C197D098E099F0986166E
:100770009706A806B90608F070CF8091F6010E948E
:10078000F40285E01092FC0110921E021092FB010F
:10079000DF91CF911F910F91FF90EF90DF90CF905D
:1007A000BF90AF909F908F9008959D9191938F5F90
:1007B00069CF85EEA5CF8091F7019091F801A091C6
:1007C000F901B091FA01892B8A2B8B2B09F49ECF6A
:1007D0000E941D020091F7011091F8012091F9018A
:1007E0003091FA016C197D098E099F0906171707C8
:1007F0002807390708F08ACFC0CF81E0C3CF80E057
:10080000C1CF82E0BFCF83E0BDCFCF92DF92EF9226
:10081000FF920F931F93CF93C82F813208F096C099
:100820000E941D026B017C018091F501811169C05C
:1008300081E08093F5018093F4019FEF9093F301A1
:100840001092F2019C0F9093F1018093D00180915E
:10085000D001806D8093D0018091CF01813009F06B
:1008600077C01092CF010E941D026B017C01809124
:10087000D0018093BB008091F7019091F801A09185
:10088000F901B091FA01892B8A2B8B2BA1F00E94E0
:100890001D020091F7011091F8012091F9013091AA
:1008A000FA016C197D098E099F0906171707280799
:1008B000390708F447C08091BC0083FDD8CF85EC90
:1008C0008093BC000E941D026B017C018091F501A8
:1008D000813009F43FC08091F2018C1710F4C0916F
:1008E000F201A1EDB1E0EFEAF1E080E08C1354C039
:1008F0008C2FCF911F910F91FF90EF90DF90CF90B1
:1009000008958091F7019091F801A091F901B091BB
:10091000FA01892B8A2B8B2B09F486CF0E941D02AA
:100920000091F7011091F8012091F9013091FA013D
:100930006C197D098E099F090617170728073907C3
:1009400008F072CF8091F6010E94F402C0E0D0CF8F
:1009500085EEB6CF8091F7019091F801A091F90151
:10096000B091FA01892B8A2B8B2B09F4AFCF0E940F
:100970001D020091F7011091F8012091F9013091C9
:10098000FA016C197D098E099F09061717072807B8
:10099000390708F09BCFD6CF9D9191938F5FA6CF5B
:1009A0000895E091AE018091AD01E81730F4F0E0D8
:1009B000E155FE4F808190E008958FEF9FEF0895FD
:1009C0009091AE018091AD012FEF3FEF981748F461
:1009D000E92FF0E0E155FE4F208130E09F5F9093DA
:1009E000AE01C90108958091AD019091AE01891BBE
:1009F000990B0895CF92DF92EF92FF920F931F937E
:100A0000CF93DF937C01CB018A012091FB0122234C
:100A100089F0EB016B01C40ED51ECC15DD0569F024
:100A20006991D701ED91FC910190F081E02DC70112
:100A30000995F3CF642F0E94AF02C801DF91CF91D7
:100A40001F910F91FF90EF90DF90CF900895CF937B
:100A5000DF931F92CDB7DEB769832091FB0122237C
:100A6000F9F020911E02203258F021E030E0FC0124
:100A70003383228390E080E00F90DF91CF9108953F
:100A80008091FC01E82FF0E0E350FE4F99819083C4
:100A90008F5F8093FC0180931E0281E090E0ECCF99
:100AA00061E0CE0101960E94AF02F7CF90E080E0B6
:100AB0000895609388017093890180938A019093CF
:100AC0008B01645D7E4F8F4F9F4F609384017093C5
:100AD0008501809386019093870182E090E0909356
:100AE0008F0180938E010E9474026093380170938D
:100AF000390180933A0190933B0108950F931F931E
:100B00000E9474028B019C0140913801509139017F
:100B100060913A0170913B01809188019091890127
:100B2000A0918A01B0918B01041B150B260B370B8A
:100B3000083E134021053105C0F00196A11DB11DED
:100B40008093880190938901A0938A01B0938B01CF
:100B500048515C4F6F4F7F4F40933801509339019C
:100B600060933A0170933B01CBCF40918401509147
:100B70008501609186017091870184179507A6070A
:100B8000B70770F0E0918C01F0918D01309741F042
:100B90000995611571058105910569F00E94590556
:100BA000609188017091890180918A0190918B01F7
:100BB0001F910F9108958091880190918901A091D2
:100BC0008A01B0918B01845D9E4FAF4FBF4F8093E0
:100BD000840190938501A0938601B093870181E001
:100BE00090E020918E0130918F01232B11F490E041
:100BF00080E090938F0180938E01D2CF4F925F92CD
:100C00006F927F928F929F92AF92BF92CF92DF921C
:100C1000EF92FF920F931F93CF93DF93FC01168106
:100C2000A12FB0E020E833E341EE51E00E94DE1155
:100C30004B015C01C2EBD7E09D0104E610E080E9C6
:100C4000E82EFF24F394CE01825B9740821793072E
:100C50009CF14580512C2E54384FC90164E670E058
:100C60000E942E127C01C90160E971E00E942E12DF
:100C70006C0104E011E0C1E0D0E0390183E06822BA
:100C80007724C415D5050CF040C0C230D10571F5EC
:100C90006114710459F5E114F10419F4C114D1047B
:100CA00029F5B0E88B0EBBE39B1EB6E2AB1EB11C70
:100CB00021960F5F1F4FE5CFCE0183709927892BB7
:100CC00099F4CE01B8010E942E12892B31F4CE0185
:100CD000B7010E942E12892B39F4A0E88A0EA1E5F3
:100CE0009A1EA1E0AA1EB11C2196ADCFD8018C910D
:100CF000A82FB0E020E831E541E050E00E94DE118D
:100D0000860E971EA81EB91ED3CF228130E0A0E127
:100D1000BEE00E9413126B017C01218130E0ACE344
:100D2000B0E00E941312C60ED71EE81EF91E808185
:100D3000C80ED11CE11CF11CA481A150BB0B20E802
:100D400031E541E050E00E94E9116C0D7D1D8E1DE2
:100D50009F1D680D791D8A1D9B1DDF91CF911F91ED
:100D60000F91FF90EF90DF90CF90BF90AF909F904A
:100D70008F907F906F905F904F9008956F927F92C9
:100D80008F929F92AF92BF92CF92DF92EF92FF929B
:100D90000F931F93CF93DF936B017C01EA018CE3E8
:100DA000882E912CA12CB12CC701A50194010E9481
:100DB000F1116883CA01B901A50194010E94F111E2
:100DC0006983C701B60120E13EE040E050E00E94A7
:100DD000F111CA01B90128E130E040E050E00E9481
:100DE000F1116A83C701B60120E831E541E050E026
:100DF0000E94F11169017A01CA01B9016C5F7F4F4C
:100E00008F4F9F4F27E030E040E050E00E94F1110B
:100E10006F5F6B83812C912C540140E094E6692E26
:100E2000712C00E911E0242F30E02E54384FF901E5
:100E3000E370FF273097F9F4C901B3010E942E1225
:100E4000892B31F4C901B8010E942E12892B99F423
:100E50008EE691E0A0E0B0E0880E991EAA1EBB1EAF
:100E6000D501C401AA27BB27C816D906EA06FB0686
:100E700038F04F5FD8CF8DE691E0A0E0B0E0ECCF46
:100E80004E83C90164E670E00E942E128C01C901F4
:100E900060E971E00E942E12309729F401151105C6
:100EA000E1F40097D1F04DE651E060E070E0841A83
:100EB000950AA60AB70AC818D908EA08FB08A4E0E8
:100EC000B1E020E0213071F4309791F50115110562
:100ED00011F4009769F54DE106C04EE651E060E07F
:100EE00070E0E5CF4C9150E070E060E031E0320F0F
:100EF000C416D506E606F70640F0C41AD50AE60A77
:100F0000F70A1196232F3C30E9F62F5F2D83C39407
:100F1000CC82DF91CF911F910F91FF90EF90DF90E6
:100F2000CF90BF90AF909F908F907F906F900895DB
:100F30004CE1D9CFCF92DF92EF92FF92C090340173
:100F4000D0903501E0903601F0903701C616D706F3
:100F5000E806F90671F06B017C0140E951E00E945E
:100F6000BE06C0923401D0923501E0923601F09273
:100F70003701FF90EF90DF90CF9008950E947E059B
:100F80000E949A078091960190E08E54984F0895A0
:100F90000E947E050E949A078091900190E008953A
:100FA0000E947E050E949A078091910190E0089529
:100FB0000E947E050E949A078091920190E0089518
:100FC000282F30E094E0359527959A95E1F7922FF8
:100FD000990F990F291B220F820F089561E081302C
:100FE000910509F44DC060E08230910521F0833015
:100FF000910551F461E08EE00E94BE0161E08FE056
:101000000E94BE0160E010C060E08430910521F0D4
:101010008530910571F461E08EE00E94BE0160E0D0
:101020008FE00E94BE0161E080E10E94BE0160E0AD
:1010300021C060E08630910521F08730910531F4C0
:1010400061E08EE00E94BE0161E0EACF60E088309E
:10105000910521F08930910581F461E08EE00E94D4
:10106000BE0160E08FE00E94BE0160E080E10E946E
:10107000BE0161E081E10C94BE01892B31F460E096
:101080008EE00E94BE0160E0BACF089561E0813039
:10109000910509F462C060E08230910549F483E073
:1010A0000E94BE0161E084E00E94BE0160E00BC0CE
:1010B0008330910569F483E00E94BE0160E084E022
:1010C0000E94BE0161E085E00E94BE0160E00FC0A9
:1010D0008430910589F483E00E94BE0160E084E0E1
:1010E0000E94BE0160E085E00E94BE0161E086E0F2
:1010F0000E94BE0160E013C085309105A9F483E031
:101100000E94BE0160E084E00E94BE0160E085E0D4
:101110000E94BE0160E086E00E94BE0161E087E0BF
:101120000E94BE0160E016C00697B9F483E00E94F9
:10113000BE0160E084E00E94BE0160E085E00E94A4
:10114000BE0160E086E00E94BE0160E087E00E9490
:10115000BE0161E088E00C94BE0183E00E94BE0104
:1011600060E0A1CFCF92DF92EF92FF920F931F9397
:10117000CF93DF930E9474026B017C01C0922F0217
:10118000D0923002E0923102F0923202C0922B02F1
:10119000D0922C02E0922D02F0922E0280912B022E
:1011A00090912C02A0912D02B0912E028C199D09D4
:1011B000AE09BF09893E9340A105B10560F5D0E0B5
:1011C000C0E0CE010E94460809E010E0C8010E947C
:1011D000EE076AE070E080E090E00E94420290E05A
:1011E00080E00E94460863E070E080E090E00E94AA
:1011F00042020150110950F72196C730D10509F775
:101200000E94740260932B0270932C0280932D0233
:1012100090932E02C3CF90E080E00E9446086AEFD0
:1012200070E080E090E0DF91CF911F910F91FF90EF
:10123000EF90DF90CF900C944202CF93DF9300D0D9
:1012400000D000D01F92CDB7DEB781E08093FB01C4
:1012500088E680931D021092FC0110921E0260E04D
:1012600080ED92E00E94270581E00E941503811124
:1012700047C087E00E9405041092AE018093AD0143
:1012800080ED92E00E94E0048F770E94E00789835E
:1012900080ED92E00E94E0040E94E0078A8380EDE6
:1012A00092E00E94E0048F7B0E94E0078B8380ED38
:1012B00092E00E94E0048C8380ED92E00E94E004C2
:1012C0000E94E0078D8380ED92E00E94E0048F771A
:1012D0000E94E0078E8380ED92E00E94E0040E946D
:1012E000E007825E8F83CE0101960E94FE0527965D
:1012F0000FB6F894DEBF0FBECDBFDF91CF9108953A
:1013000060E070E0CB01F3CF0F931F93CF93DF9397
:10131000EC0111E01093FB0188E680931D0210920E
:10132000FC0110921E0260E080ED92E00E94270511
:1013300028810AE0822F602F0E942212682F660FF8
:10134000680F660F620F80ED92E00E9427052981E9
:10135000822F602F0E942212682F660F680F660F7F
:10136000620F80ED92E00E9427052A81822F602F74
:101370000E942212682F660F680F660F620F80EDC1
:1013800092E00E9427056B8180ED92E00E94270584
:101390002C81822F602F0E942212682F660F680F07
:1013A000660F620F80ED92E00E9427052D81822F4B
:1013B000602F0E942212682F660F680F660F620F5F
:1013C00080ED92E00E9427052E812E51822F602F02
:1013D0000E942212682F660F680F660F620F80ED61
:1013E00092E00E94270581E00E941503D82F1093F8
:1013F000FB011092FC0110921E026FE080ED92E062
:101400000E94270581E00E941503C0E081110CC0F5
:1014100081E00E9405041092AE018093AD0180ED41
:1014200092E00E94E004C82F81E08093FB011092BB
:10143000FC0110921E026FE080ED92E00E942705F1
:101440006C2F6F7780ED92E00E94270581E00E946B
:1014500015038D2FDF91CF911F910F910895CF929A
:10146000DF92EF92FF926B017C01C114D104E10481
:10147000F10441F00E946711A70196010E94BF117B
:101480006B017C01C701B601FF90EF90DF90CF9018
:101490000895CF93DF930E94740260932F0270939C
:1014A0003002809331029093320260932B0270934A
:1014B0002C0280932D0290932E0280912B0290910A
:1014C0002C02A0912D02B0912E0240912F0250913A
:1014D00030026091310270913202841B950BA60B91
:1014E000B70B893E9340A105B10508F0D6C06AE06C
:1014F00070E080E090E00E942F0A70932A026093CF
:1015000029026AE070E080E090E00E942F0A709368
:101510002802609327026AE070E080E090E00E9479
:101520002F0A70932602609325026AE070E080E043
:1015300090E00E942F0A70932402609323026AE0D5
:1015400070E080E090E00E942F0A70932202609386
:1015500021026AE070E080E090E00E942F0A709320
:10156000200260931F0281E090E00E944608809173
:101570002702909128020E94EE076AE070E080E066
:1015800090E00E94420290E080E00E94460863E002
:1015900070E080E090E00E94420282E090E00E94D1
:1015A00046088091290290912A020E94EE076AE083
:1015B00070E080E090E00E94420290E080E00E94B3
:1015C000460863E070E080E090E00E94420283E021
:1015D00090E00E94460880912302909124020E948C
:1015E000EE076AE070E080E090E00E94420290E046
:1015F00080E00E94460863E070E080E090E00E9496
:10160000420284E090E00E944608C0912502D091F9
:101610002602CE010E94EE076AE070E080E090E0D2
:101620000E94420290E080E00E94460863E070E081
:1016300080E090E00E94420285E090E00E9446082F
:10164000CE010E94EE076AE070E080E090E00E9428
:10165000420290E080E00E94460863E070E080E093
:1016600090E00E94420286E090E00E944608CE018F
:101670000E94EE076AE070E080E090E00E94420283
:1016800090E080E00E94460863E070E080E090E037
:101690000E9442020E94740208CF90E080E00E9403
:1016A00046086AEF70E080E090E0DF91CF910C9403
:1016B00042020E94740260932F0270933002809362
:1016C00031029093320260932B0270932C0280932C
:1016D0002D0290932E0280912B0290912C02A091CA
:1016E0002D02B0912E0240912F0250913002609154
:1016F000310270913202841B950BA60BB70B893E09
:101700009340A105B10508F0B1C081E090E00E94CE
:10171000460862E070E080E090E00E942F0ACB0172
:101720000E94EE076AE070E080E090E00E944202D2
:1017300090E080E00E94460863E070E080E090E086
:101740000E94420282E090E00E94460862E070E05F
:1017500080E090E00E942F0ACB010E94EE076AE031
:1017600070E080E090E00E94420290E080E00E9401
:10177000460863E070E080E090E00E94420283E06F
:1017800090E00E94460862E070E080E090E00E94F5
:101790002F0ACB010E94EE076AE070E080E090E043
:1017A0000E94420290E080E00E94460863E070E000
:1017B00080E090E00E94420284E090E00E944608AF
:1017C00062E070E080E090E00E942F0ACB010E946E
:1017D000EE076AE070E080E090E00E94420290E054
:1017E00080E00E94460863E070E080E090E00E94A4
:1017F000420285E090E00E94460862E070E080E0EE
:1018000090E00E942F0ACB010E94EE076AE070E090
:1018100080E090E00E94420290E080E00E94460852
:1018200063E070E080E090E00E94420286E090E099
:101830000E94460862E070E080E090E00E942F0A7B
:10184000CB010E94EE076AE070E080E090E00E9429
:10185000420290E080E00E94460863E070E080E091
:1018600090E00E9442020E9474022DCF90E080E03E
:101870000E9446086AEF70E080E090E00C9442021B
:1018800085ED8093BC008091F7019091F801A091C3
:10189000F901B091FA010796A11DB11D23E0B6959B
:1018A000A795979587952A95D1F72091BC0024FD9F
:1018B00003C01092F50108954091F7015091F8018D
:1018C0006091F9017091FA01452B462B472B69F382
:1018D0000097A105B10541F02AE22A95F1F700C071
:1018E0000197A109B109E1CF8091F6010C94F402AE
:1018F0001F920F920FB60F9211242F933F938F9345
:101900009F93AF93BF938091A5019091A601A09161
:10191000A701B091A8013091A40123E0230F2D3736
:1019200058F50196A11DB11D2093A4018093A50136
:101930009093A601A093A701B093A8018091A9015B
:101940009091AA01A091AB01B091AC010196A11DAB
:10195000B11D8093A9019093AA01A093AB01B0930C
:10196000AC01BF91AF919F918F913F912F910F90BB
:101970000FBE0F901F90189526E8230F0296A11D09
:10198000B11DD2CF1F920F920FB60F9211242F9339
:101990003F934F935F936F937F938F939F93AF93F7
:1019A000BF93EF93FF9383E392E00E94C900FF91FE
:1019B000EF91BF91AF919F918F917F916F915F91C7
:1019C0004F913F912F910F900FBE0F901F90189540
:1019D0001F920F920FB60F9211242F938F939F9304
:1019E000EF93FF93E0914302F09144028081E091F4
:1019F0004902F0914A0282FD1BC0908180914C0205
:101A00008F5F8F7320914D02821741F0E0914C025D
:101A1000F0E0ED5CFD4F958F80934C02FF91EF91CC
:101A20009F918F912F910F900FBE0F901F9018953F
:101A30008081F4CF1F920F920FB60F9211242F9333
:101A40003F934F935F936F937F938F939F93AF9346
:101A5000BF93EF93FF938091B900887F803609F49C
:101A60004AC0F0F5883209F4A7C018F5803109F4AE
:101A70009BC0B8F4882309F4F9C0883009F494C0F5
:101A8000FF91EF91BF91AF919F918F917F916F9156
:101A90005F914F913F912F910F900FBE0F901F902C
:101AA0001895883109F488C0803251F78093F3018A
:101AB00014C0803409F49DC040F48033B9F38833F6
:101AC000F9F68093F30185ECB0C0803509F485C048
:101AD000883509F496C0883499F60E94400CD0CF1E
:101AE000883909F48CC038F5883729F050F48836E5
:101AF00011F0803729F683E08093F50110927F0181
:101B000057C0883809F47BC0803919F0803809F053
:101B1000B7CF80917F01803208F071C0E0917F01E2
:101B200081E08E0F80937F018091BB00F0E0E15A4D
:101B3000FE4F80833DC0803B39F0E0F4803A09F4E9
:101B400079C0883A09F09CCF84E08093F501109227
:101B50005E0110925D01E0918201F091830109958F
:101B600080915D0181110FC081E080935D01109231
:101B70003D0109C0803C09F4A6CF883C09F4A3CFFD
:101B8000883B09F07DCFE0915E0181E08E0F80936C
:101B90005E01F0E0E35CFE4F80818093BB0090919A
:101BA0005E0180915D0129C08091D0018093BB00CE
:101BB00085EC8093BC0064CF9091F2018091F1019B
:101BC000981758F5E091F20181E08E0F8093F201B1
:101BD000F0E0EF52FE4F8081E9CFE091F20181E029
:101BE0008E0F8093F2018091BB00F0E0EF52FE4F28
:101BF00080839091F2018091F1019817C8F285E8F5
:101C0000D8CFE091F20181E08E0F8093F2018091B4
:101C1000BB00F0E0EF52FE4F80838091F401811110
:101C20005CCF81E08093CF0184EA8093BC00109266
:101C3000F50126CF85EC8093BC001092F5018091D0
:101C40007F01803230F4E0917F01F0E0E15AFE4FF5
:101C5000108260917F0170E0E0918001F09181013C
:101C60008FE591E0099510927F010ACF1092F30160
:101C700034CFE3E3F2E01382128288EE93E0A0E037
:101C8000B0E084839583A683B78324E131E0318378
:101C9000208325EC30E03587248724EC30E037873B
:101CA000268720EC30E0318B208B21EC30E0338B29
:101CB000228B22EC30E0358B248B26EC30E0378B06
:101CC000268B118E128E138E148EE0EDF2E01382AD
:101CD000128284839583A683B78386E291E0918301
:101CE00080830895CF93DF9300D000D000D01F925F
:101CF000CDB7DEB7789484B5826084BD84B5816049
:101D000084BD85B5826085BD85B5816085BD8091C6
:101D10006E00816080936E0010928100809181003E
:101D20008260809381008091810081608093810036
:101D3000809180008160809380008091B1008460F8
:101D40008093B1008091B00081608093B000809159
:101D50007A00846080937A0080917A008260809318
:101D60007A0080917A00816080937A0080917A0075
:101D7000806880937A001092C1001092AE01109298
:101D8000AD011092FC0110921E020E94D60280E862
:101D900092E0909383018093820181E892E0909396
:101DA0008101809380018DE199E090938D01809372
:101DB0008C018091880190918901A0918A01B09154
:101DC0008B018093840190938501A0938601B09349
:101DD00087010E947E050E947E0561E082E00E94EC
:101DE000EC0161E083E00E94EC0161E084E00E948C
:101DF000EC0161E085E00E94EC0161E086E00E9478
:101E0000EC0161E087E00E94EC0161E088E00E9463
:101E1000EC0161E08DE00E94EC0162E089E00E944B
:101E2000EC0162E08AE00E94EC0161E08EE00E9439
:101E3000EC0161E08FE00E94EC0161E080E10E9432
:101E4000EC0161E081E10E94EC010E9474026115E5
:101E500071058105910511F00E94B61190E080E0B6
:101E60000E94460868EE73E080E090E00E94420223
:101E70000E94490A0E94590B0E94B2080AE010E031
:101E800080E0E82E80E0F82E9CE0C92ED12C89E07D
:101E90000E949501892B09F071C00E947402809004
:101EA0009E0190909F01A090A001B090A1019B0184
:101EB000AC01281939094A095B0949015A0134EF73
:101EC000831631E09306A104B10408F457C060936F
:101ED0009E0170939F018093A0019093A1010E94A5
:101EE000D8078F5F809399010E94D0078093980153
:101EF0000E94C807809397010E947E050E949A075E
:101F00008091940180939B010E947E050E949A0714
:101F10008091950180939C010E94BE0780939D0152
:101F2000992760919C0150919B01209197013091DC
:101F3000980140919901843691050CF470C1825B3F
:101F4000974080939601609395015093940140933C
:101F50009201309391012093900180E991E00E94D9
:101F6000FE050E9459050E947E05AE014F5F5F4F3E
:101F70000E94BE06CE0101960E9484098AE00E945A
:101F80009501892B09F071C00E94740280909E0116
:101F900090909F01A090A001B090A1019B01AC0185
:101FA000281939094A095B0949015A0134EF831696
:101FB00031E09306A104B10408F457C060939E0178
:101FC00070939F018093A0019093A1010E94D80774
:101FD000809399010E94D0078F5F809398010E949F
:101FE000C807809397010E947E050E949A078091FE
:101FF000940180939B010E947E050E949A07809124
:10200000950180939C010E94BE0780939D019927B2
:1020100060919C0150919B01209197013091980112
:1020200040919901843691050CF4FBC0825B974086
:10203000809396016093950150939401409392018F
:10204000309391012093900180E991E00E94FE0578
:102050000E9459050E947E05AE014F5F5F4F0E94AE
:10206000BE06CE0101960E9484090E94D8078C30DA
:1020700091050CF0D8C09093A3018093A2018091A8
:10208000A2019091A301892B21F4D092A301C092C7
:10209000A2018091A2019091A301B8010E942E1289
:1020A0009093260280932502CB01B8010E942E1244
:1020B00090932402809323020E94D007B8010E94CB
:1020C0002E1290932A0280932902CB01B8010E941C
:1020D0002E1290932802809327020E94C807B8010D
:1020E0000E942E125C019093220280932102CB0168
:1020F000B8010E942E124C019093200280931F027F
:1021000081E090E00E944608809123029091240291
:102110000E94EE0763E070E080E090E00E944202DF
:1021200082E090E00E94460880912502909126026C
:102130000E94EE0763E070E080E090E00E944202BF
:1021400083E090E00E944608809127029091280247
:102150000E94EE0763E070E080E090E00E9442029F
:1021600084E090E00E9446088091290290912A0222
:102170000E94EE0763E070E080E090E00E9442027F
:1021800085E090E00E944608C4010E94EE0763E0EB
:1021900070E080E090E00E94420286E090E00E94C1
:1021A0004608C5010E94EE0763E070E080E090E021
:1021B0000E9442028928B9F4AB28A9F463E070E0D8
:1021C00080E090E00E942F0ADC01CB010196A11D66
:1021D000B11D8230910549F18330910549F1019794
:1021E00011F40E94490A0E94C80780FD04C060E003
:1021F0008DE00E94BE010E94C80780FF04C061E01C
:102200008DE00E94BE01E114F10409F440CE0E9469
:102210005801882309F43BCE0E94000038CE4E9628
:1022200090CE4E9605CF0C9726CF0E94590BDBCF50
:102230000E94B208D8CF8F929F92AF92BF92CF9256
:10224000DF92EF92FF92CF93DF93EC016881798167
:102250008A819B81611571058105910521F464E2F4
:1022600079ED8BE597E02DE133EF41E050E00E94FE
:10227000BF1149015A019B01AC01A7EAB1E40E94D8
:10228000DE116B017C01ACEEB4EFA50194010E945C
:10229000EC11C60ED71EE81EF91EF7FE06C081E03F
:1022A000C81AD108E10880E8F80AC882D982EA820F
:1022B000FB82C701B6019F77DF91CF91FF90EF902E
:1022C000DF90CF90BF90AF909F908F9008958F92A6
:1022D0009F92AF92BF92CF92DF92EF92FF92609166
:1022E000000170910101809102019091030161153B
:1022F00071058105910521F464E279ED8BE597E0A4
:102300002DE133EF41E050E00E94BF1149015A0135
:102310009B01AC01A7EAB1E40E94DE116B017C01D4
:10232000ACEEB4EFA50194010E94EC11C60ED71ECD
:10233000E81EF91EF7FE06C081E0C81AD108E108C0
:1023400080E8F80AC0920001D0920101E0920201F7
:10235000F0920301C701B6019F77FF90EF90DF90E5
:10236000CF90BF90AF909F908F90089560930001A1
:102370007093010180930201909303010895052E4B
:1023800097FB1EF400940E94D61157FD07D00E94BF
:10239000F11107FC03D04EF40C94D61150954095E2
:1023A000309521953F4F4F4F5F4F08959095809501
:1023B000709561957F4F8F4F9F4F08950E94131224
:1023C000A59F900DB49F900DA49F800D911D112489
:1023D0000895B7FF0C94DE110E94DE11821B930B4F
:1023E0000895A1E21A2EAA1BBB1BFD010DC0AA1F56
:1023F000BB1FEE1FFF1FA217B307E407F50720F06E
:10240000A21BB30BE40BF50B661F771F881F991FE8
:102410001A9469F760957095809590959B01AC0131
:10242000BD01CF010895A29FB001B39FC001A39F3A
:10243000700D811D1124911DB29F700D811D1124FD
:10244000911D0895991B79E004C0991F961708F013
:10245000961B881F7A95C9F78095089597FB072EDC
:1024600016F4009407D077FD09D00E94421207FCB1
:1024700005D03EF4909581959F4F08957095619594
:102480007F4F0895AA1BBB1B51E107C0AA1FBB1FAA
:10249000A617B70710F0A61BB70B881F991F5A95F0
:1024A000A9F780959095BC01CD010895EE0FFF1F0F
:1024B0000590F491E02D0994F894FFCF01000000FD
:1024C0001F1C1F1E1F1E1F1F1E1F1E1F000000009F
:1024D000EB0082028C003801BD009B00AF000000C1
:1024E00000002705FA045605D004F304E004D104E3
:107E0000112484B714BE81FFF0D085E080938100F7
:107E100082E08093C00088E18093C10086E0809377
:107E2000C20080E18093C4008EE0C9D0259A86E02C
:107E300020E33CEF91E0309385002093840096BBD3
:107E4000B09BFECF1D9AA8958150A9F7CC24DD24C4
:107E500088248394B5E0AB2EA1E19A2EF3E0BF2EE7
:107E6000A2D0813461F49FD0082FAFD0023811F036
:107E7000013811F484E001C083E08DD089C08234E0
:107E800011F484E103C0853419F485E0A6D080C0E4
:107E9000853579F488D0E82EFF2485D0082F10E0AE
:107EA000102F00270E291F29000F111F8ED06801E7
:107EB0006FC0863521F484E090D080E0DECF843638
:107EC00009F040C070D06FD0082F6DD080E0C81688
:107ED00080E7D80618F4F601B7BEE895C0E0D1E017
:107EE00062D089930C17E1F7F0E0CF16F0E7DF06D8
:107EF00018F0F601B7BEE89568D007B600FCFDCFD4
:107F0000A601A0E0B1E02C9130E011968C91119780
:107F100090E0982F8827822B932B1296FA010C0160
:107F200087BEE89511244E5F5F4FF1E0A038BF0790
:107F300051F7F601A7BEE89507B600FCFDCF97BE46
:107F4000E89526C08437B1F42ED02DD0F82E2BD052
:107F50003CD0F601EF2C8F010F5F1F4F84911BD097
:107F6000EA94F801C1F70894C11CD11CFA94CF0C13
:107F7000D11C0EC0853739F428D08EE10CD085E9AC
:107F80000AD08FE07ACF813511F488E018D01DD067
:107F900080E101D065CF982F8091C00085FFFCCF94
:107FA0009093C60008958091C00087FFFCCF809118
:107FB000C00084FD01C0A8958091C6000895E0E648
:107FC000F0E098E1908380830895EDDF803219F02E
:107FD00088E0F5DFFFCF84E1DECF1F93182FE3DFCA
:107FE0001150E9F7F2DF1F91089580E0E8DFEE27F6
:047FF000FF270994CA
:027FFE00040479
:00000001FF
