:100000000C9462000C948A000C948A000C948A0070
:100010000C948A000C948A000C948A000C948A0038
:100020000C948A000C948A000C948A000C948A0028
:100030000C948A000C948A000C948A000C948A0018
:100040000C944F0A0C948A000C94BF0A0C94990AE1
:100050000C948A000C948A000C948A000C948A00F8
:100060000C94F10A0C948A00000000002400270080
:100070002A0000000000250028002B0000000000DE
:1000800023002600290004040404040404040202DA
:100090000202020203030303030301020408102007
:1000A0004080010204081020010204081020000012
:1000B0000008000201000003040700000000000027
:1000C0000000100C11241FBECFEFD8E0DEBFCDBF63
:1000D00011E0A0E0B1E0E6E7F9E202C005900D9280
:1000E000A834B107D9F722E0A8E4B1E001C01D921D
:1000F000A83EB207E1F710E0C2E6D0E004C02197C5
:10010000FE010E94D211C136D107C9F70E94490CE5
:100110000C94B9140C940000833081F028F48130E1
:1001200099F08230A9F008958730A9F08830C9F09D
:100130008430B1F4809180008F7D03C08091800075
:100140008F7780938000089584B58F7784BD08955C
:1001500084B58F7DFBCF8091B0008F778093B00006
:1001600008958091B0008F7DF9CFCF93DF93282F32
:1001700030E0F901E255FF4F8491F901E656FF4F57
:10018000D491F901EA57FF4FC491CC23A1F081111A
:100190000E948C00EC2FF0E0EE0FFF1FE458FF4FA1
:1001A000A591B491EC91ED2381E090E009F480E019
:1001B000DF91CF91089580E090E0FACF1F93CF9325
:1001C000DF93282F30E0F901E255FF4F8491F901C8
:1001D000E656FF4FD491F901EA57FF4FC491CC2363
:1001E000A9F0162F81110E948C00EC2FF0E0EE0F89
:1001F000FF1FEE58FF4FA591B4918FB7F894EC9183
:10020000111108C0D095DE23DC938FBFDF91CF9111
:100210001F910895DE2BF8CFCF93DF9390E0FC0180
:10022000E656FF4F24918A579F4FFC018491882303
:10023000D1F090E0880F991FFC01E859FF4FA5917C
:10024000B491FC01EE58FF4FC591D491623071F426
:100250009FB7F8943C91822F809583238C93E881FB
:100260002E2B28839FBFDF91CF9108958FB7F894ED
:10027000EC912E2B2C938FBFF6CF3FB7F894809143
:10028000C9019091CA01A091CB01B091CC0126B5D2
:10029000A89B05C02F3F19F00196A11DB11D3FBFBE
:1002A000BA2FA92F982F8827BC01CD01620F711D8D
:1002B000811D911D42E0660F771F881F991F4A9587
:1002C000D1F708958F929F92AF92BF92CF92DF9213
:1002D000EF92FF926B017C010E943D014B015C019A
:1002E000C114D104E104F104B9F00E943D01681980
:1002F00079098A099B09683E73408105910580F35D
:1003000021E0C21AD108E108F10888EE880E83E0E6
:10031000981EA11CB11CE4CFFF90EF90DF90CF900E
:10032000BF90AF909F908F9008952FB7F8946091F1
:10033000C5017091C6018091C7019091C8012FBF7E
:10034000089508950895AF92BF92CF92DF92EF92F1
:10035000FF920F931F93CF93DF936C017B018B016F
:10036000040F151FEB015E01AE18BF08C017D107BF
:1003700059F06991D601ED91FC910190F081E02D49
:10038000C6010995892B79F7C501DF91CF911F919E
:100390000F91FF90EF90DF90CF90BF90AF900895B6
:1003A000FC01538D448D252F30E0842F90E0821B7B
:1003B000930B541710F0CF96089501970895FC0100
:1003C000918D828D981761F0A28DAE0FBF2FB11D58
:1003D0005D968C91928D9F5F9F73928F90E00895B0
:1003E0008FEF9FEF0895FC01918D828D981731F06A
:1003F000828DE80FF11D858D90E008958FEF9FEFBE
:100400000895FC01918D228D892F90E0805C9F4F93
:10041000821B91098F73992708958FE392E00E94C0
:10042000010221E0892B09F420E0822F089580E069
:1004300090E0892B29F00E940D0281110C9400009C
:100440000895FC01A48DA80FB92FB11DA35ABF4F69
:100450002C91848D90E001968F739927848FA689C3
:10046000B7892C93A089B1898C91837080648C9317
:10047000938D848D981306C00288F389E02D8081C6
:100480008F7D80830895EF92FF920F931F93CF93F8
:10049000DF93EC0181E0888F9B8D8C8D98131AC0BF
:1004A000E889F989808185FF15C09FB7F894EE89A6
:1004B000FF896083E889F989808183708064808303
:1004C0009FBF81E090E0DF91CF911F910F91FF904E
:1004D000EF900895F62E0B8D10E00F5F1F4F0F73F6
:1004E0001127E02E8C8D8E110CC00FB607FCFACFB1
:1004F000E889F989808185FFF5CFCE010E9421022C
:10050000F1CFEB8DEC0FFD2FF11DE35AFF4FF08281
:100510009FB7F8940B8FEA89FB8980818062CFCFE7
:10052000CF93DF93EC01888D8823B9F0AA89BB892A
:10053000E889F9898C9185FD03C0808186FD0DC015
:100540000FB607FCF7CF8C9185FFF2CF808185FF36
:10055000EDCFCE010E942102E9CFDF91CF91089526
:1005600020917101260F3327331F21323105ECF41E
:1005700020911502FC0190E080E0243069F082E0D7
:100580000895A09171012191AC014F5A5E4FA40FC3
:10059000B52FB11D2C930196861798F380917101A8
:1005A000680F6093710180E0089581E008951092D2
:1005B000150281E0809314021092EF0161E082E164
:1005C0000E94DE0061E083E10E94DE00E9EBF0E0E2
:1005D00080818E7F808380818D7F808388E480937B
:1005E000B80085E48093BC000895CF93DF9391E039
:1005F000909350018823B9F0C091B800D091BA000F
:100600008091BC008A7B8093BC0060E082E10E9404
:10061000DE0060E083E10E94DE000E94D702D093FA
:10062000BA00C093B800DF91CF9108958F929F9246
:10063000AF92BF92CF92DF92EF92FF920F931F93F0
:10064000CF93DF93D0913E02D13208F0D7C0182F5C
:10065000C0913D020E943D016B017C018091150219
:1006600081116BC082E080931502109314028FEF0A
:100670008093130210921202D0931102ADE1B2E006
:10068000E1EFF1E080E0D81391C01092F001809189
:10069000F001CC0FC82BC093F0018091EF018130A5
:1006A00009F088C01092EF010E943D016B017C01AE
:1006B0008091F0018093BB00809117029091180205
:1006C000A0911902B0911A02892B8A2B8B2BA1F0D1
:1006D0000E943D0100911702109118022091190209
:1006E00030911A026C197D098E099F0906171707A8
:1006F0002807390708F442C08091BC0083FDD8CF99
:1007000085EC8093BC000E943D016B017C018091CF
:100710001502823009F450C0809113028F3F09F412
:100720006FC080911302803209F46CC08091130273
:10073000803309F469C084E026C08091170290914B
:100740001802A0911902B0911A02892B8A2B8B2BC7
:1007500009F484CF0E943D01809017029090180206
:10076000A0901902B0901A026C197D098E099F0998
:1007700086169706A806B90608F070CF8091160273
:100780000E94F50285E010921C0210923E02109227
:100790001B02DF91CF911F910F91FF90EF90DF909F
:1007A000CF90BF90AF909F908F9008959D9191931F
:1007B0008F5F69CF85EEA5CF8091170290911802C7
:1007C000A0911902B0911A02892B8A2B8B2B09F464
:1007D0009ECF0E943D0100911702109118022091B6
:1007E000190230911A026C197D098E099F090617AA
:1007F00017072807390708F08ACFC0CF81E0C3CF99
:1008000080E0C1CF82E0BFCF83E0BDCFCF92DF9247
:10081000EF92FF920F931F93CF93C82F813208F06E
:1008200096C00E943D016B017C01809115028111EF
:1008300069C081E080931502809314029FEF90932A
:100840001302109212029C0F909311028093F001F8
:100850008091F001806D8093F0018091EF018130F3
:1008600009F077C01092EF010E943D016B017C01FD
:100870008091F0018093BB00809117029091180243
:10088000A0911902B0911A02892B8A2B8B2BA1F00F
:100890000E943D0100911702109118022091190247
:1008A00030911A026C197D098E099F0906171707E6
:1008B0002807390708F447C08091BC0083FDD8CFD2
:1008C00085EC8093BC000E943D016B017C0180910E
:1008D0001502813009F43FC0809112028C1710F488
:1008E000C0911202A1EFB1E0EFECF1E080E08C13D7
:1008F00054C08C2FCF911F910F91FF90EF90DF90FC
:10090000CF9008958091170290911802A09119023A
:10091000B0911A02892B8A2B8B2B09F486CF0E9467
:100920003D01009117021091180220911902309197
:100930001A026C197D098E099F09061717072807E7
:10094000390708F072CF809116020E94F502C0E0CC
:10095000D0CF85EEB6CF8091170290911802A0916A
:100960001902B0911A02892B8A2B8B2B09F4AFCF75
:100970000E943D0100911702109118022091190266
:1009800030911A026C197D098E099F090617170705
:100990002807390708F09BCFD6CF9D9191938F5FA1
:1009A000A6CF0895E091CE018091CD01E81730F4F3
:1009B000F0E0E153FE4F808190E008958FEF9FEFCC
:1009C00008959091CE018091CD012FEF3FEF9817C0
:1009D00048F4E92FF0E0E153FE4F208130E09F5FC3
:1009E0009093CE01C90108958091CD019091CE01DF
:1009F000891B990B0895CF92DF92EF92FF920F938C
:100A00001F93CF93DF937C01CB018A0120911B02BE
:100A1000222389F0EB016B01C40ED51ECC15DD0538
:100A200069F06991D701ED91FC910190F081E02D81
:100A3000C7010995F3CF642F0E94B002C801DF916E
:100A4000CF911F910F91FF90EF90DF90CF9008957D
:100A5000CF93DF931F92CDB7DEB7698320911B023E
:100A60002223F9F020913E02203258F021E030E0BC
:100A7000FC013383228390E080E00F90DF91CF91DF
:100A8000089580911C02E82FF0E0E35EFD4F99810C
:100A900090838F5F80931C0280933E0281E090E000
:100AA000ECCF61E0CE0101960E94B002F7CF90E05A
:100AB00080E0089560939C0170939D0180939E0156
:100AC00090939F01645D7E4F8F4F9F4F609398017D
:100AD0007093990180939A0190939B0182E090E03A
:100AE0009093A3018093A2010E94950160934C0111
:100AF00070934D0180934E0190934F0108950F9391
:100B00001F930E9495018B019C0140914C015091D3
:100B10004D0160914E0170914F0180919C01909127
:100B20009D01A0919E01B0919F01041B150B260B06
:100B3000370B083E134021053105C0F00196A11D79
:100B4000B11D80939C0190939D01A0939E01B09351
:100B50009F0148515C4F6F4F7F4F40934C01509322
:100B60004D0160934E0170934F01CBCF409198019E
:100B70005091990160919A0170919B01841795079A
:100B8000A607B70770F0E091A001F091A10130979E
:100B900041F00995611571058105910569F00E9483
:100BA0005A0560919C0170919D0180919E019091E8
:100BB0009F011F910F91089580919C0190919D013B
:100BC000A0919E01B0919F01845D9E4FAF4FBF4F9A
:100BD0008093980190939901A0939A01B0939B01FF
:100BE00081E090E02091A2013091A301232B11F428
:100BF00090E080E09093A3018093A201D2CF4F9226
:100C00005F926F927F928F929F92AF92BF92CF929C
:100C1000DF92EF92FF920F931F93CF93DF93FC012C
:100C20001681A12FB0E020E833E341EE51E00E94AD
:100C30005A114B015C01C2EBD7E09D0104E610E0C4
:100C400080E9E82EFF24F394CE01825B974082175F
:100C500093079CF14580512C2E54384FC90164E60E
:100C600070E00E94BE117C01C90160E971E00E9440
:100C7000BE116C0104E011E0C1E0D0E0390183E075
:100C800068227724C415D5050CF040C0C230D105C8
:100C900071F56114710459F5E114F10419F4C114EA
:100CA000D10429F5B0E88B0EBBE39B1EB6E2AB1E68
:100CB000B11C21960F5F1F4FE5CFCE01837099279E
:100CC000892B99F4CE01B8010E94BE11892B31F411
:100CD000CE01B7010E94BE11892B39F4A0E88A0E1B
:100CE000A1E59A1EA1E0AA1EB11C2196ADCFD801A4
:100CF0008C91A82FB0E020E831E541E050E00E945F
:100D00005A11860E971EA81EB91ED3CF228130E03D
:100D1000A0E1BEE00E948F116B017C01218130E0D7
:100D2000ACE3B0E00E948F11C60ED71EE81EF91E7C
:100D30008081C80ED11CE11CF11CA481A150BB0B09
:100D400020E831E541E050E00E9465116C0D7D1D09
:100D50008E1D9F1D680D791D8A1D9B1DDF91CF91F2
:100D60001F910F91FF90EF90DF90CF90BF90AF90C9
:100D70009F908F907F906F905F904F9008956F92AB
:100D80007F928F929F92AF92BF92CF92DF92EF921B
:100D9000FF920F931F93CF93DF936B017C01EA01C6
:100DA0008CE3882E912CA12CB12CC701A5019401B4
:100DB0000E946D116883CA01B901A50194010E94C6
:100DC0006D116983C701B60120E13EE040E050E0CB
:100DD0000E946D11CA01B90128E130E040E050E005
:100DE0000E946D116A83C701B60120E831E541E038
:100DF00050E00E946D1169017A01CA01B9016C5F6E
:100E00007F4F8F4F9F4F27E030E040E050E00E943F
:100E10006D116F5F6B83812C912C540140E094E63F
:100E2000692E712C00E911E0242F30E02E54384F48
:100E3000F901E370FF273097F9F4C901B3010E946B
:100E4000BE11892B31F4C901B8010E94BE11892B52
:100E500099F48EE691E0A0E0B0E0880E991EAA1EFB
:100E6000BB1ED501C401AA27BB27C816D906EA06AE
:100E7000FB0638F04F5FD8CF8DE691E0A0E0B0E000
:100E8000ECCF4E83C90164E670E00E94BE118C0174
:100E9000C90160E971E00E94BE11309729F4011583
:100EA0001105E1F40097D1F04DE651E060E070E00B
:100EB000841A950AA60AB70AC818D908EA08FB08CE
:100EC000A4E0B1E020E0213071F4309791F50115F4
:100ED000110511F4009769F54DE106C04EE651E0A9
:100EE00060E070E0E5CF4C9150E070E060E031E010
:100EF000320FC416D506E606F70640F0C41AD50A26
:100F0000E60AF70A1196232F3C30E9F62F5F2D836E
:100F1000C394CC82DF91CF911F910F91FF90EF90FE
:100F2000DF90CF90BF90AF909F908F907F906F9009
:100F300008954CE1D9CFCF92DF92EF92FF92C0900B
:100F40004801D0904901E0904A01F0904B01C6164B
:100F5000D706E806F90671F06B017C0148EA51E01A
:100F60000E94BF06C0924801D0924901E0924A0116
:100F7000F0924B01FF90EF90DF90CF9008950E9488
:100F80007F050E949B078091AE0190E08E54984FA0
:100F900008950E947F050E949B078091A80190E020
:100FA00008950E947F050E949B078091A90190E00F
:100FB00008950E947F050E949B078091AA0190E0FE
:100FC0000895282F30E094E0359527959A95E1F71C
:100FD000922F990F990F291B220F820F08958330AA
:100FE000910551F461E08EE00E94DE0061E08FE047
:100FF0000E94DE0060E010C060E08430910521F0C6
:101000008530910571F461E08EE00E94DE0060E0C1
:101010008FE00E94DE0061E080E10E94DE0060E07F
:1010200021C060E08630910521F08730910531F4D0
:1010300061E08EE00E94DE0061E0EACF60E088308F
:10104000910521F08930910581F461E08EE00E94E4
:10105000DE0060E08FE00E94DE0060E080E10E9440
:10106000DE0061E081E10C94DE00892B31F460E068
:101070008EE00E94DE0060E0BACF089581309105D5
:1010800081F461E08EE00E94DE0060E08FE00E946B
:10109000DE0060E080E10E94DE0060E081E10C940F
:1010A000DE008230910531F460E08EE00E94DE00C7
:1010B00061E0ECCF0C94EF0761E08130910509F419
:1010C00062C060E08230910549F483E00E94DE0056
:1010D00061E084E00E94DE0060E00BC08330910597
:1010E00069F483E00E94DE0060E084E00E94DE009C
:1010F00061E085E00E94DE0060E00FC08430910571
:1011000089F483E00E94DE0060E084E00E94DE005B
:1011100060E085E00E94DE0061E086E00E94DE0083
:1011200060E013C085309105A9F483E00E94DE00E1
:1011300060E084E00E94DE0060E085E00E94DE0066
:1011400060E086E00E94DE0061E087E00E94DE0051
:1011500060E016C00697B9F483E00E94DE0060E00C
:1011600084E00E94DE0060E085E00E94DE0060E036
:1011700086E00E94DE0060E087E00E94DE0061E021
:1011800088E00C94DE0083E00E94DE0060E0A1CFE6
:10119000FC0101900020E9F73197AF01481B590B82
:1011A000BC018FE392E00C94A301CF93DF930E94E4
:1011B000C808EC0184E391E00E94C8088C0F9D1FD1
:1011C000DF91CF910895CF93DF93CDB7DEB7D250A3
:1011D0000FB6F894DEBF0FBECDBF9E01295F3D4F15
:1011E00047E351E060E072E0CE0101960E94D81121
:1011F000CE0101960E94C808DE5F0FB6F894DEBFEC
:101200000FBECDBFDF91CF910895CF93DF9300D074
:1012100000D000D01F92CDB7DEB781E080931B02D3
:1012200088E680933D0210921C0210923E0260E01C
:101230008CED92E00E94280581E00E941603811146
:1012400047C087E00E9406041092CE018093CD0132
:101250008CED92E00E94E1048F770E94E107898380
:101260008CED92E00E94E1040E94E1078A838CEDFC
:1012700092E00E94E1048F7B0E94E1078B838CED5A
:1012800092E00E94E1048C838CED92E00E94E104E4
:101290000E94E1078D838CED92E00E94E1048F773C
:1012A0000E94E1078E838CED92E00E94E1040E948F
:1012B000E107825E8F83CE0101960E94FF0527968B
:1012C0000FB6F894DEBF0FBECDBFDF91CF9108956A
:1012D00060E070E0CB01F3CF0F931F93CF93DF93C8
:1012E000EC0111E010931B0288E680933D021092FE
:1012F0001C0210923E0260E08CED92E00E942805F4
:1013000028810AE0822F602F0E949E11682F660FAD
:10131000680F660F620F8CED92E00E94280529810C
:10132000822F602F0E949E11682F660F680F660F34
:10133000620F8CED92E00E9428052A81822F602F97
:101340000E949E11682F660F680F660F620F8CED6A
:1013500092E00E9428056B818CED92E00E942805A6
:101360002C81822F602F0E949E11682F660F680FBC
:10137000660F620F8CED92E00E9428052D81822F6E
:10138000602F0E949E11682F660F680F660F620F14
:101390008CED92E00E9428052E812E51822F602F25
:1013A0000E949E11682F660F680F660F620F8CED0A
:1013B00092E00E94280581E00E941603D82F109326
:1013C0001B0210921C0210923E026FE08CED92E024
:1013D0000E94280581E00E941603C0E081110CC024
:1013E00081E00E9406041092CE018093CD018CED25
:1013F00092E00E94E104C82F81E080931B021092CA
:101400001C0210923E026FE08CED92E00E942805D3
:101410006C2F6F778CED92E00E94280581E00E948E
:1014200016038D2FDF91CF911F910F91089585EDB8
:101430008093BC008091170290911802A09119022C
:10144000B0911A020796A11DB11D23E0B695A7958C
:10145000979587952A95D1F72091BC0024FD03C06C
:101460001092150208954091170250911802609150
:10147000190270911A02452B462B472B69F30097EE
:10148000A105B10541F02AE22A95F1F700C00197C4
:10149000A109B109E1CF809116020C94F5021F92C7
:1014A0000F920FB60F9211242F933F938F939F9318
:1014B000AF93BF938091C5019091C601A091C701E0
:1014C000B091C8013091C40123E0230F2D3758F5A6
:1014D0000196A11DB11D2093C4018093C501909375
:1014E000C601A093C701B093C8018091C901909132
:1014F000CA01A091CB01B091CC010196A11DB11DF3
:101500008093C9019093CA01A093CB01B093CC0101
:10151000BF91AF919F918F913F912F910F900FBEEF
:101520000F901F90189526E8230F0296A11DB11D5C
:10153000D2CF1F920F920FB60F9211242F933F9389
:101540004F935F936F937F938F939F93AF93BF93CB
:10155000EF93FF938FE392E00E942102FF91EF91BE
:10156000BF91AF919F918F917F916F915F914F91BB
:101570003F912F910F900FBE0F901F9018951F92C3
:101580000F920FB60F9211242F938F939F93EF9387
:10159000FF93E0914F02F09150028081E09155025B
:1015A000F091560282FD1BC09081809158028F5F9E
:1015B0008F7320915902821741F0E0915802F0E0B8
:1015C000E15CFD4F958F80935802FF91EF919F91C1
:1015D0008F912F910F900FBE0F901F9018958081C3
:1015E000F4CF1F920F920FB60F9211242F933F93B7
:1015F0004F935F936F937F938F939F93AF93BF931B
:10160000EF93FF938091B900887F803609F44AC038
:10161000F0F5883209F4A7C018F5803109F49BC0B1
:10162000B8F4882309F4F9C0883009F494C0FF9114
:10163000EF91BF91AF919F918F917F916F915F914A
:101640004F913F912F910F900FBE0F901F901895C3
:10165000883109F488C0803251F78093130214C096
:10166000803409F49DC040F48033B9F38833F9F62F
:101670008093130285ECB0C0803509F485C08835AD
:1016800009F496C0883499F60E94170AD0CF883999
:1016900009F48CC038F5883729F050F4883611F0F9
:1016A000803729F683E0809315021092930157C08A
:1016B000883809F47BC0803919F0803809F0B7CF39
:1016C00080919301803208F071C0E091930181E034
:1016D0008E0F809393018091BB00F0E0ED58FE4F98
:1016E00080833DC0803B39F0E0F4803A09F479C052
:1016F000883A09F09CCF84E0809315021092720121
:1017000010927101E0919601F091970109958091F5
:10171000710181110FC081E080937101109251011C
:1017200009C0803C09F4A6CF883C09F4A3CF883BCC
:1017300009F07DCFE091720181E08E0F80937201FC
:10174000F0E0EF5AFE4F80818093BB0090917201D0
:101750008091710129C08091F0018093BB0085ECDC
:101760008093BC0064CF909112028091110298176F
:1017700058F5E091120281E08E0F80931202F0E0A2
:10178000EF50FE4F8081E9CFE091120281E08E0F91
:10179000809312028091BB00F0E0EF50FE4F8083F7
:1017A00090911202809111029817C8F285E8D8CF63
:1017B000E091120281E08E0F809312028091BB00B3
:1017C000F0E0EF50FE4F80838091140281115CCFD6
:1017D00081E08093EF0184EA8093BC0010921502AF
:1017E00026CF85EC8093BC00109215028091930166
:1017F000803230F4E0919301F0E0ED58FE4F10821A
:101800006091930170E0E0919401F091950183E77C
:1018100091E00995109293010ACF1092130234CFF0
:10182000EFE3F2E01382128288EE93E0A0E0B0E0F2
:1018300084839583A683B78324E131E031832083B9
:1018400025EC30E03587248724EC30E03787268785
:1018500020EC30E0318B208B21EC30E0338B228B7D
:1018600022EC30E0358B248B26EC30E0378B268B56
:10187000118E128E138E148EECEDF2E01382128212
:1018800084839583A683B78386E291E091838083E6
:101890000895CF93DF9300D000D000D01F92CDB732
:1018A000DEB7789484B5826084BD84B5816084BDE0
:1018B00085B5826085BD85B5816085BD80916E00EE
:1018C000816080936E00109281008091810082601F
:1018D000809381008091810081608093810080915C
:1018E00080008160809380008091B100846080934B
:1018F000B1008091B00081608093B00080917A0047
:10190000846080937A0080917A00826080937A006C
:1019100080917A00816080937A0080917A0080685B
:1019200080937A001092C1001092CE011092CD01E6
:1019300010921C0210923E020E94D70281EA91E0AE
:10194000909397018093960182EA91E0909395019C
:101950008093940185E099E09093A1018093A00188
:1019600080919C0190919D01A0919E01B0919F0159
:101970008093980190939901A0939A01B0939B0151
:101980000E947F050E947F0561E082E00E940C01B9
:1019900061E083E00E940C0161E084E00E940C01A0
:1019A00061E085E00E940C0161E086E00E940C018C
:1019B00061E087E00E940C0161E088E00E940C0178
:1019C00061E08DE00E940C0162E089E00E940C0160
:1019D00062E08AE00E940C0161E08EE00E940C014E
:1019E00061E08FE00E940C0161E080E10E940C0147
:1019F00061E081E10E940C0190E080E00E945C08BF
:101A00006AEF70E080E090E00E94620154E0C52E31
:101A1000D12C01E010E0C8010E945C0849E0E42EEE
:101A2000F12CC7010E943E0866E070E080E090E083
:101A30000E94620181E0E81AF10899F70F5F1F4FD9
:101A40000730110541F781E0C81AD10811F76AEF94
:101A500070E080E090E00E94620104E010E039E074
:101A6000C32ED12CE12CF12C0E94E310A70196018A
:101A70000E943B117093B6016093B5010E94E31080
:101A8000A70196010E943B117093B4016093B301CA
:101A90000E94E310A70196010E943B117093B801C8
:101AA0006093B7010E94E310A70196010E943B11C9
:101AB0007093BA016093B9010E94E310A7019601E7
:101AC0000E943B117093B2016093B1010E94E31038
:101AD000A70196010E943B117093B0016093AF0182
:101AE00081E090E00E945C088091B3019091B40184
:101AF0000E943E0866E070E080E090E00E94620193
:101B000090E080E00E945C0866E070E080E090E099
:101B10000E94620182E090E00E945C088091B50121
:101B20009091B6010E943E0866E070E080E090E08F
:101B30000E94620190E080E00E945C0866E070E034
:101B400080E090E00E94620183E090E00E945C08E7
:101B50008091B9019091BA010E943E0866E070E060
:101B600080E090E00E94620190E080E00E945C08CA
:101B700066E070E080E090E00E94620184E090E026
:101B80000E945C08A090B701B090B801C5010E9406
:101B90003E0866E070E080E090E00E94620190E024
:101BA00080E00E945C0866E070E080E090E00E94C7
:101BB000620185E090E00E945C08C5010E943E0839
:101BC00066E070E080E090E00E94620190E080E0DA
:101BD0000E945C0866E070E080E090E00E94620194
:101BE00086E090E00E945C08C5010E943E0866E025
:101BF00070E080E090E00E94620190E080E00E944E
:101C00005C0866E070E080E090E00E9462010150B4
:101C1000110909F029CF6AEF70E080E090E00E949E
:101C2000620104E010E00E9495017B017093A7011E
:101C30006093A6017093A5016093A4018091A40113
:101C40009091A5018E199F098B3F910508F057C00F
:101C500081E090E00E945C0881E090E00E943E08F4
:101C600066E070E080E090E00E94620182E090E037
:101C70000E945C0890E080E00E94EF0766E070E060
:101C800080E090E00E94620183E090E00E945C08A6
:101C900081E090E00E943E0866E070E080E090E025
:101CA0000E94620184E090E00E945C0890E080E085
:101CB0000E94EF0766E070E080E090E00E94620121
:101CC00085E090E00E945C0881E090E00E943E0880
:101CD00066E070E080E090E00E94620186E090E0C3
:101CE0000E945C0890E080E00E94EF0766E070E0F0
:101CF00080E090E00E9462010E9495019BCF0E94CB
:101D000095017B017093A7016093A6017093A501D3
:101D10006093A4018091A4019091A5018E199F095F
:101D20008B3F910508F057C081E090E00E945C086D
:101D300090E080E00E94EF0766E070E080E090E0D5
:101D40000E94620182E090E00E945C0881E090E0E5
:101D50000E943E0866E070E080E090E00E94620130
:101D600083E090E00E945C0890E080E00E94EF0732
:101D700066E070E080E090E00E94620184E090E024
:101D80000E945C0881E090E00E943E0866E070E0FE
:101D900080E090E00E94620185E090E00E945C0893
:101DA00090E080E00E94EF0766E070E080E090E065
:101DB0000E94620186E090E00E945C0881E090E071
:101DC0000E943E0866E070E080E090E00E946201C0
:101DD0000E9495019BCF0150110909F024CF6AEFB1
:101DE00070E080E090E00E9462010AE010E080E094
:101DF000682E80E0782EEE24E394F12C22E0822EEF
:101E0000912C89E00E94B500892B31F464E670E0E2
:101E100080E090E00E94620189E00E94B500892B79
:101E200009F055C00E94D9078F5F8093BF010E94BF
:101E3000D1078093BE010E94C9078093BD010E9413
:101E40007F050E949B078091AC018093C1010E9495
:101E50007F050E949B078091AD018093C2010E9483
:101E6000BF078093C30199276091C2015091C101BE
:101E70002091BD013091BE014091BF018436910592
:101E80000CF4A5C0825B97408093AE016093AD01D6
:101E90005093AC014093AA013093A9012093A8016B
:101EA00088EA91E00E94FF050E945A050E947F0582
:101EB000AE014F5F5F4F0E94BF06CE0101960E94A8
:101EC0006C0968EC70E080E090E00E9462018AE0BA
:101ED0000E94B500892B31F464E670E080E090E068
:101EE0000E9462018AE00E94B500892B09F055C06A
:101EF0000E94D9078093BF010E94D1078F5F809312
:101F0000BE010E94C9078093BD010E947F050E9407
:101F10009B078091AC018093C1010E947F050E94C4
:101F20009B078091AD018093C2010E94BF078093FF
:101F3000C30199276091C2015091C1012091BD0157
:101F40003091BE014091BF01843691050CF441C02F
:101F5000825B97408093AE016093AD015093AC01DA
:101F60004093AA013093A9012093A80188EA91E047
:101F70000E94FF050E945A050E947F05AE014F5F37
:101F80005F4F0E94BF06CE0101960E946C0968EC6B
:101F900070E080E090E00E9462010E94D9078D30DD
:101FA0009105C8F49093BC018093BB018091BB0163
:101FB0009091BC018A30910580F0F092BA01E092D4
:101FC000B9010A979093B8018093B70111C04E965A
:101FD0005BCF4E96BFCF0C97E5CF009709F0A2C01C
:101FE000F092BA01E092B9019092B8018092B701E3
:101FF0000E94D107B8010E94AA119093B601809364
:10200000B501CB01B8010E94AA119093B40180934D
:10201000B3010E94C907B8010E94AA116C019093F4
:10202000B2018093B101CB01B8010E94AA115C01F9
:102030009093B0018093AF0181E090E00E945C0832
:102040008091B9019091BA010E943E0863E070E06E
:1020500080E090E00E94620182E090E00E945C08D3
:102060008091B7019091B8010E943E0863E070E052
:1020700080E090E00E94620183E090E00E945C08B2
:102080008091B3019091B4010E943E0863E070E03A
:1020900080E090E00E94620184E090E00E945C0891
:1020A0008091B5019091B6010E943E0863E070E016
:1020B00080E090E00E94620185E090E00E945C0870
:1020C000C5010E943E0863E070E080E090E00E945D
:1020D000620186E090E00E945C08C6010E943E0812
:1020E00063E070E080E090E00E9462010E94C90716
:1020F00080FD04C060E08DE00E94DE000E94C90700
:1021000080FF04C061E08DE00E94DE006114710474
:1021100009F477CE0E940D02882309F472CE0E9442
:1021200000006FCE1092BA011092B9014BCF8F927E
:102130009F92AF92BF92CF92DF92EF92FF92CF9396
:10214000DF93EC01688179818A819B81611571053A
:102150008105910521F464E279ED8BE597E02DE1AD
:1021600033EF41E050E00E943B1149015A019B01CD
:10217000AC01A7EAB1E40E945A116B017C01ACEEFC
:10218000B4EFA50194010E946811C60ED71EE81E87
:10219000F91EF7FE06C081E0C81AD108E10880E800
:1021A000F80AC882D982EA82FB82C701B6019F770A
:1021B000DF91CF91FF90EF90DF90CF90BF90AF90E5
:1021C0009F908F9008958F929F92AF92BF92CF92DF
:1021D000DF92EF92FF926091000170910101809176
:1021E000020190910301611571058105910521F4AA
:1021F00064E279ED8BE597E02DE133EF41E050E0CB
:102200000E943B1149015A019B01AC01A7EAB1E4CC
:102210000E945A116B017C01ACEEB4EFA501940150
:102220000E946811C60ED71EE81EF91EF7FE06C0F2
:1022300081E0C81AD108E10880E8F80AC0920001DC
:10224000D0920101E0920201F0920301C701B601B0
:102250009F77FF90EF90DF90CF90BF90AF909F90CF
:102260008F900895609300017093010180930201A3
:10227000909303010895052E97FB1EF400940E948D
:10228000521157FD07D00E946D1107FC03D04EF488
:102290000C94521150954095309521953F4F4F4FDA
:1022A0005F4F089590958095709561957F4F8F4F02
:1022B0009F4F08950E948F11A59F900DB49F900D80
:1022C000A49F800D911D11240895B7FF0C945A11FD
:1022D0000E945A11821B930B0895A1E21A2EAA1B89
:1022E000BB1BFD010DC0AA1FBB1FEE1FFF1FA217C6
:1022F000B307E407F50720F0A21BB30BE40BF50BC3
:10230000661F771F881F991F1A9469F7609570954B
:10231000809590959B01AC01BD01CF010895A29FCE
:10232000B001B39FC001A39F700D811D1124911DA9
:10233000B29F700D811D1124911D0895991B79E0A4
:1023400004C0991F961708F0961B881F7A95C9F745
:1023500080950895AA1BBB1B51E107C0AA1FBB1F94
:10236000A617B70710F0A61BB70B881F991F5A9521
:10237000A9F780959095BC01CD01089597FB072E94
:1023800016F4009407D077FD09D00E94AA1107FC2B
:1023900005D03EF4909581959F4F08957095619575
:1023A0007F4F0895EE0FFF1F0590F491E02D0994E3
:1023B000AEE0B0E0EEEDF1E10C9490148C01FA0186
:1023C00086E08C831A83098377FF02C060E070E89F
:1023D000615071097E836D83A901BF01CE01019611
:1023E0000E9404124D815E8157FD0AC02F813885FD
:1023F000421753070CF49A01020F131FF8011082C1
:102400002E96E4E00C94AC14ABE0B0E0EAE0F2E12C
:102410000C9482147C013B018A01FC011782168214
:10242000838181FFC8C1CE0101965C01F7019381D0
:10243000F30193FD859193FF81913F01882309F476
:1024400053C1853239F493FD859193FF81913F010A
:10245000853229F4B70190E00E94F413E7CF912C64
:10246000212C312CFFE1F31538F08B3211F190F46F
:10247000803209F1833229F137FC3CC020ED280F6E
:102480002A3050F536FE20C08AE0989E200D112497
:10249000922E06C08D3291F0803371F7689430F837
:1024A000F30193FD859193FF81913F018111DACF73
:1024B00021C0689431F8689432F8F2CF689433F808
:1024C000EFCF689434F8ECCFEAE02E9E200D112473
:1024D000222E689435F8E4CF8E3229F436FC04C1FC
:1024E000689436F8DDCF8C3619F4689437F8D8CF75
:1024F0008836B1F2982F9F7D95549330E0F0833663
:10250000A1F18337C1F1833509F063C02801F2E0FE
:102510004F0E511CF801C080D180692D70E036FC4F
:1025200002C06FEF7FEFC6010E94DE134C0168947A
:1025300037F882010AC00C5F1F4FFFE3F98388243C
:102540008394912C6501E89437F833FE2DC0522C0A
:102550008114910471F5552009F468CFB70180E228
:1025600090E00E94F4135A94F6CFF8018081898399
:102570000E5F1F4FE4CF2801F2E04F0E511CF8010F
:10258000C080D180692D70E036FC02C06FEF7FEF14
:10259000C6010E94E9134C018201D5CFB70180E248
:1025A00090E00E94F4132A942814190409F0B0F75B
:1025B000CECFF60137FC859137FE81916F01B701CF
:1025C00090E00E94F41351105A94F1E08F1A910890
:1025D000BFCF843619F0893609F077C0F80137FE8D
:1025E0006BC060817181828193810C5F1F4FF32DDD
:1025F000FF763F2E97FF09C0909580957095619565
:102600007F4F8F4F9F4F689437F82AE030E0A50145
:102610000E942414C82ECA188C2C432C36FE0CC0E1
:10262000E89440F8C91440F434FE05C032FC03C0FD
:10263000F32DFE7E4F2E892C44FE95C0FE01EC0D3D
:10264000F11D8081803309F087C0242D297E422E20
:10265000842D8870582E43FC95C040FE8FC09C2C62
:10266000821418F42C0C922C981844FE91C0B701D7
:1026700080E390E00E94F41342FE09C088E790E0F6
:1026800041FE02C088E590E0B7010E94F413C9142E
:1026900008F48AC0CA94D12C9FEFC91AD90ACA0C6F
:1026A000DB1CF60182916F01B70190E00E94F413E8
:1026B000AC14BD04B1F74FCF60817181072E000CBF
:1026C000880B990B0E5F1F4F92CFD32CE894D4F850
:1026D0002AE030E0853739F1232D297FD22E8F363D
:1026E00001F148F48835A9F0F701868197812B968E
:1026F000E2E10C949E14803749F08837A9F7D4FEA4
:1027000002C06894D2F820E130E00DC06894D4F89B
:10271000F6CF34FE03C0822F8660D82E20E132E04F
:1027200002C028E030E0F801D7FE0FC0608171815F
:10273000828193810C5F1F4FA5010E942414C82E33
:10274000CA183D2CE89437F867CF6081718190E01A
:1027500080E00E5F1F4FF0CF42FC02C0839478CF21
:102760008394839475CF842D867809F471CFF6CF46
:10277000B70180E290E00E94F41383948214C0F3C6
:10278000512C73CF522C5818821408F46ECFF8CF06
:10279000842D867809F47BCF8BE241FE80E247FCF2
:1027A0008DE2B70190E071CFB70180E390E00E9425
:1027B000F4139A946CCF8FEF9FEF99CFFC010590A3
:1027C000615070400110D8F7809590958E0F9F1F33
:1027D0000895FC016150704001900110D8F7809578
:1027E00090958E0F9F1F08950F931F93CF93DF93A4
:1027F000182F092FEB018B8181FD09C01FEF0FEF0F
:10280000812F902FDF91CF911F910F91089582FF1B
:1028100014C02E813F818C819D81281739073CF49B
:10282000E881F981CF0101969983888310838E8195
:102830009F8101969F838E83E3CFE885F985812F61
:102840000995892BA1F3DACFFA01AA27283051F193
:10285000203181F1E8946F936E7F6E5F7F4F8F4FD1
:102860009F4FAF4FB1E03ED0B4E03CD0670F781F30
:10287000891F9A1FA11D680F791F8A1F911DA11D15
:102880006A0F711D811D911DA11D20D009F468944E
:102890003F912AE0269F11243019305D3193DEF6F6
:1028A000CF010895462F4770405D4193B3E00FD0AC
:1028B000C9F7F6CF462F4F70405D4A3318F0495D97
:1028C00031FD4052419302D0A9F7EACFB4E0A6957A
:1028D0009795879577956795BA95C9F7009761059C
:1028E000710508959B01AC010A2E069457954795F2
:1028F00037952795BA95C9F7620F731F841F951FE7
:10290000A01D08952F923F924F925F926F927F92F7
:102910008F929F92AF92BF92CF92DF92EF92FF92EF
:102920000F931F93CF93DF93CDB7DEB7CA1BDB0B9B
:102930000FB6F894DEBF0FBECDBF09942A88398840
:1029400048885F846E847D848C849B84AA84B98447
:10295000C884DF80EE80FD800C811B81AA81B98153
:10296000CE0FD11D0FB6F894DEBF0FBECDBFED0167
:062970000895F894FFCF6A
:10297600010000001F1C1F1E1F1E1F1F1E1F1E1FE3
:10298600000000004302A301D00190020102DF0112
:10299600F301000000002805FB045705D104F404E8
:1029A600E104D2040D0A00256425643A25642564F1
:0829B6003A256425640A0000C3
:00000001FF
