:020000040000FA
:100000000C9462000C948A000C948A000C948A0070
:100010000C948A000C948A000C948A000C948A0038
:100020000C948A000C948A000C948A000C948A0028
:100030000C948A000C948A000C948A000C948A0018
:100040000C944F0A0C948A000C94BF0A0C94990AE1
:100050000C948A000C948A000C948A000C948A00F8
:100060000C94F10A0C948A00000000002400270080
:100070002A0000000000250028002B0000000000DE
:1000800023002600290004040404040404040202DA
:100090000202020203030303030301020408102007
:1000A0004080010204081020010204081020000012
:1000B0000008000201000003040700000000000027
:1000C0000000100C11241FBECFEFD8E0DEBFCDBF63
:1000D00011E0A0E0B1E0EEE3F1E202C005900D9284
:1000E000A434B107D9F722E0A4E4B1E001C01D9225
:1000F000AB3CB207E1F710E0C2E6D0E004C02197C4
:10010000FE010E94B60DC136D107C9F70E94490C05
:100110000C949D100C940000833081F028F4813001
:1001200099F08230A9F008958730A9F08830C9F09D
:100130008430B1F4809180008F7D03C08091800075
:100140008F7780938000089584B58F7784BD08955C
:1001500084B58F7DFBCF8091B0008F778093B00006
:1001600008958091B0008F7DF9CFCF93DF93282F32
:1001700030E0F901E255FF4F8491F901E656FF4F57
:10018000D491F901EA57FF4FC491CC23A1F081111A
:100190000E948C00EC2FF0E0EE0FFF1FE458FF4FA1
:1001A000A591B491EC91ED2381E090E009F480E019
:1001B000DF91CF91089580E090E0FACF1F93CF9325
:1001C000DF93282F30E0F901E255FF4F8491F901C8
:1001D000E656FF4FD491F901EA57FF4FC491CC2363
:1001E000A9F0162F81110E948C00EC2FF0E0EE0F89
:1001F000FF1FEE58FF4FA591B4918FB7F894EC9183
:10020000111108C0D095DE23DC938FBFDF91CF9111
:100210001F910895DE2BF8CFCF93DF9390E0FC0180
:10022000E656FF4F24918A579F4FFC018491882303
:10023000D1F090E0880F991FFC01E859FF4FA5917C
:10024000B491FC01EE58FF4FC591D491623071F426
:100250009FB7F8943C91822F809583238C93E881FB
:100260002E2B28839FBFDF91CF9108958FB7F894ED
:10027000EC912E2B2C938FBFF6CF3FB7F894809143
:10028000AC019091AD01A091AE01B091AF0126B546
:10029000A89B05C02F3F19F00196A11DB11D3FBFBE
:1002A000BA2FA92F982F8827BC01CD01620F711D8D
:1002B000811D911D42E0660F771F881F991F4A9587
:1002C000D1F708958F929F92AF92BF92CF92DF9213
:1002D000EF92FF926B017C010E943D014B015C019A
:1002E000C114D104E104F104B9F00E943D01681980
:1002F00079098A099B09683E73408105910580F35D
:1003000021E0C21AD108E108F10888EE880E83E0E6
:10031000981EA11CB11CE4CFFF90EF90DF90CF900E
:10032000BF90AF909F908F9008952FB7F8946091F1
:10033000A8017091A9018091AA019091AB012FBFF2
:10034000089508950895AF92BF92CF92DF92EF92F1
:10035000FF920F931F93CF93DF936C017B018B016F
:10036000040F151FEB015E01AE18BF08C017D107BF
:1003700059F06991D601ED91FC910190F081E02D49
:10038000C6010995892B79F7C501DF91CF911F919E
:100390000F91FF90EF90DF90CF90BF90AF900895B6
:1003A000FC01538D448D252F30E0842F90E0821B7B
:1003B000930B541710F0CF96089501970895FC0100
:1003C000918D828D981761F0A28DAE0FBF2FB11D58
:1003D0005D968C91928D9F5F9F73928F90E00895B0
:1003E0008FEF9FEF0895FC01918D828D981731F06A
:1003F000828DE80FF11D858D90E008958FEF9FEFBE
:100400000895FC01918D228D892F90E0805C9F4F93
:10041000821B91098F739927089582E292E00E94CE
:10042000010221E0892B09F420E0822F089580E069
:1004300090E0892B29F00E940D0281110C9400009C
:100440000895FC01A48DA80FB92FB11DA35ABF4F69
:100450002C91848D90E001968F739927848FA689C3
:10046000B7892C93A089B1898C91837080648C9317
:10047000938D848D981306C00288F389E02D8081C6
:100480008F7D80830895EF92FF920F931F93CF93F8
:10049000DF93EC0181E0888F9B8D8C8D98131AC0BF
:1004A000E889F989808185FF15C09FB7F894EE89A6
:1004B000FF896083E889F989808183708064808303
:1004C0009FBF81E090E0DF91CF911F910F91FF904E
:1004D000EF900895F62E0B8D10E00F5F1F4F0F73F6
:1004E0001127E02E8C8D8E110CC00FB607FCFACFB1
:1004F000E889F989808185FFF5CFCE010E9421022C
:10050000F1CFEB8DEC0FFD2FF11DE35AFF4FF08281
:100510009FB7F8940B8FEA89FB8980818062CFCFE7
:10052000CF93DF93EC01888D8823B9F0AA89BB892A
:10053000E889F9898C9185FD03C0808186FD0DC015
:100540000FB607FCF7CF8C9185FFF2CF808185FF36
:10055000EDCFCE010E942102E9CFDF91CF91089526
:1005600020916D01260F3327331F21323105ECF422
:100570002091F801FC0190E080E0243069F082E0F5
:100580000895A0916D012191AC01435B5E4FA40FD2
:10059000B52FB11D2C930196861798F380916D01AC
:1005A000680F60936D0180E0089581E008951092D6
:1005B000F80181E08093F7011092D20161E082E1BD
:1005C0000E94DE0061E083E10E94DE00E9EBF0E0E2
:1005D00080818E7F808380818D7F808388E480937B
:1005E000B80085E48093BC000895CF93DF9391E039
:1005F00090934C018823B9F0C091B800D091BA0013
:100600008091BC008A7B8093BC0060E082E10E9404
:10061000DE0060E083E10E94DE000E94D702D093FA
:10062000BA00C093B800DF91CF9108958F929F9246
:10063000AF92BF92CF92DF92EF92FF920F931F93F0
:10064000CF93DF93D0912102D13208F0D7C0182F79
:10065000C09120020E943D016B017C018091F80154
:1006600081116BC082E08093F8011093F7018FEF46
:100670008093F6011092F501D093F401A0E0B2E06E
:10068000E4EDF1E080E0D81391C01092D3018091A5
:10069000D301CC0FC82BC093D3018091D2018130FC
:1006A00009F088C01092D2010E943D016B017C01CB
:1006B0008091D3018093BB008091FA019091FB015E
:1006C000A091FC01B091FD01892B8A2B8B2BA1F00D
:1006D0000E943D010091FA011091FB012091FC0163
:1006E0003091FD016C197D098E099F0906171707C6
:1006F0002807390708F442C08091BC0083FDD8CF99
:1007000085EC8093BC000E943D016B017C018091CF
:10071000F801823009F450C08091F6018F3F09F44E
:100720006FC08091F601803209F46CC08091F601AF
:10073000803309F469C084E026C08091FA01909169
:10074000FB01A091FC01B091FD01892B8A2B8B2B21
:1007500009F484CF0E943D018090FA019090FB0142
:10076000A090FC01B090FD016C197D098E099F09D4
:1007700086169706A806B90608F070CF8091F90191
:100780000E94F50285E01092FF0110922102109262
:10079000FE01DF91CF911F910F91FF90EF90DF90BD
:1007A000CF90BF90AF909F908F9008959D9191931F
:1007B0008F5F69CF85EEA5CF8091FA019091FB0103
:1007C000A091FC01B091FD01892B8A2B8B2B09F4A0
:1007D0009ECF0E943D010091FA011091FB012091F2
:1007E000FC013091FD016C197D098E099F090617E6
:1007F00017072807390708F08ACFC0CF81E0C3CF99
:1008000080E0C1CF82E0BFCF83E0BDCFCF92DF9247
:10081000EF92FF920F931F93CF93C82F813208F06E
:1008200096C00E943D016B017C018091F80181110D
:1008300069C081E08093F8018093F7019FEF909366
:10084000F6011092F5019C0F9093F4018093D3016F
:100850008091D301806D8093D3018091D20181304A
:1008600009F077C01092D2010E943D016B017C011A
:100870008091D3018093BB008091FA019091FB019C
:10088000A091FC01B091FD01892B8A2B8B2BA1F04B
:100890000E943D010091FA011091FB012091FC01A1
:1008A0003091FD016C197D098E099F090617170704
:1008B0002807390708F447C08091BC0083FDD8CFD2
:1008C00085EC8093BC000E943D016B017C0180910E
:1008D000F801813009F43FC08091F5018C1710F4C4
:1008E000C091F501A4EDB1E0E2EBF1E080E08C1302
:1008F00054C08C2FCF911F910F91FF90EF90DF90FC
:10090000CF9008958091FA019091FB01A091FC0194
:10091000B091FD01892B8A2B8B2B09F486CF0E9485
:100920003D010091FA011091FB012091FC013091F1
:10093000FD016C197D098E099F0906171707280705
:10094000390708F072CF8091F9010E94F502C0E0EA
:10095000D0CF85EEB6CF8091FA019091FB01A091A6
:10096000FC01B091FD01892B8A2B8B2B09F4AFCFB1
:100970000E943D010091FA011091FB012091FC01C0
:100980003091FD016C197D098E099F090617170723
:100990002807390708F09BCFD6CF9D9191938F5FA1
:1009A000A6CF0895E091B1018091B001E81730F42D
:1009B000F0E0EE54FE4F808190E008958FEF9FEFBE
:1009C00008959091B1018091B0012FEF3FEF9817FA
:1009D00048F4E92FF0E0EE54FE4F208130E09F5FB5
:1009E0009093B101C90108958091B0019091B10136
:1009F000891B990B0895CF92DF92EF92FF920F938C
:100A00001F93CF93DF937C01CB018A012091FE01DC
:100A1000222389F0EB016B01C40ED51ECC15DD0538
:100A200069F06991D701ED91FC910190F081E02D81
:100A3000C7010995F3CF642F0E94B002C801DF916E
:100A4000CF911F910F91FF90EF90DF90CF9008957D
:100A5000CF93DF931F92CDB7DEB769832091FE015C
:100A60002223F9F020912102203258F021E030E0D9
:100A7000FC013383228390E080E00F90DF91CF91DF
:100A800008958091FF01E82FF0E0E050FE4F99813A
:100A900090838F5F8093FF018093210281E090E03B
:100AA000ECCF61E0CE0101960E94B002F7CF90E05A
:100AB00080E00895609398017093990180939A0162
:100AC00090939B01645D7E4F8F4F9F4F6093940185
:100AD00070939501809396019093970182E090E046
:100AE00090939F0180939E010E949501609348011D
:100AF0007093490180934A0190934B0108950F939D
:100B00001F930E9495018B019C01409148015091D7
:100B1000490160914A0170914B0180919801909137
:100B20009901A0919A01B0919B01041B150B260B12
:100B3000370B083E134021053105C0F00196A11D79
:100B4000B11D8093980190939901A0939A01B0935D
:100B50009B0148515C4F6F4F7F4F4093480150932A
:100B6000490160934A0170934B01CBCF40919401AE
:100B700050919501609196017091970184179507A6
:100B8000A607B70770F0E0919C01F0919D013097A6
:100B900041F00995611571058105910569F00E9483
:100BA0005A05609198017091990180919A019091F4
:100BB0009B011F910F910895809198019091990147
:100BC000A0919A01B0919B01845D9E4FAF4FBF4FA2
:100BD0008093940190939501A0939601B09397010F
:100BE00081E090E020919E0130919F01232B11F430
:100BF00090E080E090939F0180939E01D2CF4F922E
:100C00005F926F927F928F929F92AF92BF92CF929C
:100C1000DF92EF92FF920F931F93CF93DF93FC012C
:100C20001681A12FB0E020E833E341EE51E00E94AD
:100C30003E0D4B015C01C2EBD7E09D0104E610E0E4
:100C400080E9E82EFF24F394CE01825B974082175F
:100C500093079CF14580512C2E54384FC90164E60E
:100C600070E00E948E0D7C01C90160E971E00E9474
:100C70008E0D6C0100E011E0C1E0D0E0390183E0AD
:100C800068227724C415D5050CF040C0C230D105C8
:100C900071F56114710459F5E114F10419F4C114EA
:100CA000D10429F5B0E88B0EBBE39B1EB6E2AB1E68
:100CB000B11C21960F5F1F4FE5CFCE01837099279E
:100CC000892B99F4CE01B8010E948E0D892B31F445
:100CD000CE01B7010E948E0D892B39F4A0E88A0E4F
:100CE000A1E59A1EA1E0AA1EB11C2196ADCFD801A4
:100CF0008C91A82FB0E020E831E541E050E00E945F
:100D00003E0D860E971EA81EB91ED3CF228130E05D
:100D1000A0E1BEE00E94730D6B017C01218130E0F7
:100D2000ACE3B0E00E94730DC60ED71EE81EF91E9C
:100D30008081C80ED11CE11CF11CA481A150BB0B09
:100D400020E831E541E050E00E94490D6C0D7D1D29
:100D50008E1D9F1D680D791D8A1D9B1DDF91CF91F2
:100D60001F910F91FF90EF90DF90CF90BF90AF90C9
:100D70009F908F907F906F905F904F9008956F92AB
:100D80007F928F929F92AF92BF92CF92DF92EF921B
:100D9000FF920F931F93CF93DF936B017C01EA01C6
:100DA0008CE3882E912CA12CB12CC701A5019401B4
:100DB0000E94510D6883CA01B901A50194010E94E6
:100DC000510D6983C701B60120E13EE040E050E0EB
:100DD0000E94510DCA01B90128E130E040E050E025
:100DE0000E94510D6A83C701B60120E831E541E058
:100DF00050E00E94510D69017A01CA01B9016C5F8E
:100E00007F4F8F4F9F4F27E030E040E050E00E943F
:100E1000510D6F5F6B83812C912C540140E094E65F
:100E2000692E712C00E911E0242F30E02E54384F48
:100E3000F901E370FF273097F9F4C901B3010E946B
:100E40008E0D892B31F4C901B8010E948E0D892BBA
:100E500099F48EE691E0A0E0B0E0880E991EAA1EFB
:100E6000BB1ED501C401AA27BB27C816D906EA06AE
:100E7000FB0638F04F5FD8CF8DE691E0A0E0B0E000
:100E8000ECCF4E83C90164E670E00E948E0D8C01A8
:100E9000C90160E971E00E948E0D309729F40115B7
:100EA0001105E1F40097D1F04DE651E060E070E00B
:100EB000841A950AA60AB70AC818D908EA08FB08CE
:100EC000A0E0B1E020E0213071F4309791F50115F8
:100ED000110511F4009769F54DE106C04EE651E0A9
:100EE00060E070E0E5CF4C9150E070E060E031E010
:100EF000320FC416D506E606F70640F0C41AD50A26
:100F0000E60AF70A1196232F3C30E9F62F5F2D836E
:100F1000C394CC82DF91CF911F910F91FF90EF90FE
:100F2000DF90CF90BF90AF909F908F907F906F9009
:100F300008954CE1D9CFCF92DF92EF92FF92C0900B
:100F40004401D0904501E0904601F0904701C6165B
:100F5000D706E806F90671F06B017C0140EA51E022
:100F60000E94BF06C0924401D0924501E092460122
:100F7000F0924701FF90EF90DF90CF9008950E948C
:100F80007F050E949B078091A60190E08E54984FA8
:100F900008950E947F050E949B078091A00190E028
:100FA00008950E947F050E949B078091A10190E017
:100FB00008950E947F050E949B078091A20190E006
:100FC0000895282F30E094E0359527959A95E1F71C
:100FD000922F990F990F291B220F820F08958330AA
:100FE000910551F461E08EE00E94DE0061E08FE047
:100FF0000E94DE0060E010C060E08430910521F0C6
:101000008530910571F461E08EE00E94DE0060E0C1
:101010008FE00E94DE0061E080E10E94DE0060E07F
:1010200021C060E08630910521F08730910531F4D0
:1010300061E08EE00E94DE0061E0EACF60E088308F
:10104000910521F08930910581F461E08EE00E94E4
:10105000DE0060E08FE00E94DE0060E080E10E9440
:10106000DE0061E081E10C94DE00892B31F460E068
:101070008EE00E94DE0060E0BACF089581309105D5
:1010800081F461E08EE00E94DE0060E08FE00E946B
:10109000DE0060E080E10E94DE0060E081E10C940F
:1010A000DE008230910531F460E08EE00E94DE00C7
:1010B00061E0ECCF0C94EF0761E08130910509F419
:1010C00062C060E08230910549F483E00E94DE0056
:1010D00061E084E00E94DE0060E00BC08330910597
:1010E00069F483E00E94DE0060E084E00E94DE009C
:1010F00061E085E00E94DE0060E00FC08430910571
:1011000089F483E00E94DE0060E084E00E94DE005B
:1011100060E085E00E94DE0061E086E00E94DE0083
:1011200060E013C085309105A9F483E00E94DE00E1
:1011300060E084E00E94DE0060E085E00E94DE0066
:1011400060E086E00E94DE0061E087E00E94DE0051
:1011500060E016C00697B9F483E00E94DE0060E00C
:1011600084E00E94DE0060E085E00E94DE0060E036
:1011700086E00E94DE0060E087E00E94DE0061E021
:1011800088E00C94DE0083E00E94DE0060E0A1CFE6
:10119000FC0101900020E9F73197AF01481B590B82
:1011A000BC0182E292E00C94A301CF93DF930E94F2
:1011B000C808EC0180E391E00E94C8088C0F9D1FD5
:1011C000DF91CF910895CF93DF93CDB7DEB7D250A3
:1011D0000FB6F894DEBF0FBECDBF9E01295F3D4F15
:1011E00043E351E060E072E0CE0101960E94BC0D45
:1011F000CE0101960E94C808DE5F0FB6F894DEBFEC
:101200000FBECDBFDF91CF910895CF93DF9300D074
:1012100000D000D01F92CDB7DEB781E08093FE01F1
:1012200088E6809320021092FF011092210260E074
:101230008FEB92E00E94280581E00E941603811145
:1012400047C087E00E9406041092B1018093B0016C
:101250008FEB92E00E94E1048F770E94E10789837F
:101260008FEB92E00E94E1040E94E1078A838FEBFA
:1012700092E00E94E1048F7B0E94E1078B838FEB59
:1012800092E00E94E1048C838FEB92E00E94E104E3
:101290000E94E1078D838FEB92E00E94E1048F773B
:1012A0000E94E1078E838FEB92E00E94E1040E948E
:1012B000E107825E8F83CE0101960E94FF0527968B
:1012C0000FB6F894DEBF0FBECDBFDF91CF9108956A
:1012D00060E070E0CB01F3CF0F931F93CF93DF93C8
:1012E000EC0111E01093FE0188E680932002109239
:1012F000FF011092210260E08FEB92E00E9428052E
:1013000028810AE0822F602F0E94820D682F660FCD
:10131000680F660F620F8FEB92E00E94280529810B
:10132000822F602F0E94820D682F660F680F660F54
:10133000620F8FEB92E00E9428052A81822F602F96
:101340000E94820D682F660F680F660F620F8FEB89
:1013500092E00E9428056B818FEB92E00E942805A5
:101360002C81822F602F0E94820D682F660F680FDC
:10137000660F620F8FEB92E00E9428052D81822F6D
:10138000602F0E94820D682F660F680F660F620F34
:101390008FEB92E00E9428052E812E51822F602F24
:1013A0000E94820D682F660F680F660F620F8FEB29
:1013B00092E00E94280581E00E941603D82F109326
:1013C000FE011092FF01109221026FE08FEB92E07C
:1013D0000E94280581E00E941603C0E081110CC024
:1013E00081E00E9406041092B1018093B0018FEB5E
:1013F00092E00E94E104C82F81E08093FE011092E8
:10140000FF01109221026FE08FEB92E00E9428050D
:101410006C2F6F778FEB92E00E94280581E00E948D
:1014200016038D2FDF91CF911F910F91089585EDB8
:101430008093BC008091FA019091FB01A091FC0186
:10144000B091FD010796A11DB11D23E0B695A795AA
:10145000979587952A95D1F72091BC0024FD03C06C
:101460001092F80108954091FA015091FB016091AA
:10147000FC017091FD01452B462B472B69F300972A
:10148000A105B10541F02AE22A95F1F700C00197C4
:10149000A109B109E1CF8091F9010C94F5021F92E5
:1014A0000F920FB60F9211242F933F938F939F9318
:1014B000AF93BF938091A8019091A901A091AA0137
:1014C000B091AB013091A70123E0230F2D3758F5E0
:1014D0000196A11DB11D2093A7018093A8019093AF
:1014E000A901A093AA01B093AB018091AC019091A6
:1014F000AD01A091AE01B091AF010196A11DB11D4A
:101500008093AC019093AD01A093AE01B093AF0175
:10151000BF91AF919F918F913F912F910F900FBEEF
:101520000F901F90189526E8230F0296A11DB11D5C
:10153000D2CF1F920F920FB60F9211242F933F9389
:101540004F935F936F937F938F939F93AF93BF93CB
:10155000EF93FF9382E292E00E942102FF91EF91CC
:10156000BF91AF919F918F917F916F915F914F91BB
:101570003F912F910F900FBE0F901F9018951F92C3
:101580000F920FB60F9211242F938F939F93EF9387
:10159000FF93E0913202F09133028081E0913802B2
:1015A000F091390282FD1BC0908180913B028F5FD8
:1015B0008F7320913C02821741F0E0913B02F0E0F2
:1015C000EE5DFD4F958F80933B02FF91EF919F91D0
:1015D0008F912F910F900FBE0F901F9018958081C3
:1015E000F4CF1F920F920FB60F9211242F933F93B7
:1015F0004F935F936F937F938F939F93AF93BF931B
:10160000EF93FF938091B900887F803609F44AC038
:10161000F0F5883209F4A7C018F5803109F49BC0B1
:10162000B8F4882309F4F9C0883009F494C0FF9114
:10163000EF91BF91AF919F918F917F916F915F914A
:101640004F913F912F910F900FBE0F901F901895C3
:10165000883109F488C0803251F78093F60114C0B4
:10166000803409F49DC040F48033B9F38833F9F62F
:101670008093F60185ECB0C0803509F485C08835CB
:1016800009F496C0883499F60E94170AD0CF883999
:1016900009F48CC038F5883729F050F4883611F0F9
:1016A000803729F683E08093F80110928F0157C0AC
:1016B000883809F47BC0803919F0803809F0B7CF39
:1016C00080918F01803208F071C0E0918F0181E03C
:1016D0008E0F80938F018091BB00F0E0E159FE4FA7
:1016E00080833DC0803B39F0E0F4803A09F479C052
:1016F000883A09F09CCF84E08093F80110926E0143
:1017000010926D01E0919201F09193010995809101
:101710006D0181110FC081E080936D0110924D0128
:1017200009C0803C09F4A6CF883C09F4A3CF883BCC
:1017300009F07DCFE0916E0181E08E0F80936E0104
:10174000F0E0E35BFE4F80818093BB0090916E01DF
:1017500080916D0129C08091D3018093BB0085ECFD
:101760008093BC0064CF9091F5018091F4019817AB
:1017700058F5E091F50181E08E0F8093F501F0E0DE
:10178000EC52FE4F8081E9CFE091F50181E08E0FB0
:101790008093F5018091BB00F0E0EC52FE4F808316
:1017A0009091F5018091F4019817C8F285E8D8CF9F
:1017B000E091F50181E08E0F8093F5018091BB00EF
:1017C000F0E0EC52FE4F80838091F70181115CCFF5
:1017D00081E08093D20184EA8093BC001092F801EA
:1017E00026CF85EC8093BC001092F80180918F0188
:1017F000803230F4E0918F01F0E0E159FE4F108229
:1018000060918F0170E0E0919001F09191018FE67D
:1018100091E0099510928F010ACF1092F60134CF12
:10182000E2E2F2E01382128288EE93E0A0E0B0E000
:1018300084839583A683B78320E131E031832083BD
:1018400025EC30E03587248724EC30E03787268785
:1018500020EC30E0318B208B21EC30E0338B228B7D
:1018600022EC30E0358B248B26EC30E0378B268B56
:10187000118E128E138E148EEFEBF2E01382128211
:1018800084839583A683B78382E291E091838083EA
:101890000895789484B5826084BD84B5816084BDE8
:1018A00085B5826085BD85B5816085BD80916E00FE
:1018B000816080936E00109281008091810082602F
:1018C000809381008091810081608093810080916C
:1018D00080008160809380008091B100846080935B
:1018E000B1008091B00081608093B00080917A0057
:1018F000846080937A0080917A00826080937A007D
:1019000080917A00816080937A0080917A0080686B
:1019100080937A001092C100E0913202F09133027C
:1019200082E08083E0912E02F0912F021082E091FC
:101930003002F091310280E1808310923A02E0910E
:101940003602F091370286E08083E0913402F09114
:101950003502808180618083E0913402F09135020C
:10196000808188608083E0913402F091350280812B
:1019700080688083E0913402F091350280818F7D10
:1019800080831092B1011092B0011092FF01109269
:1019900021020E94D70281EA91E090939301809303
:1019A000920182EA91E0909391018093900185E009
:1019B00099E090939D0180939C0180919801909172
:1019C0009901A0919A01B0919B0180939401909309
:1019D0009501A0939601B09397010E947F050E9404
:1019E0007F0561E082E00E940C0161E083E00E94DB
:1019F0000C0161E084E00E940C0161E085E00E943E
:101A00000C0161E086E00E940C0161E087E00E9429
:101A10000C0161E088E00E940C0161E08DE00E9411
:101A20000C0162E089E00E940C0162E08AE00E9401
:101A30000C0161E08EE00E940C0161E08FE00E94E9
:101A40000C0161E080E10E940C0161E081E10E94F3
:101A50000C0190E080E00E945C0881E090E00E9430
:101A60005C08C9E0D0E0CE010E943E0866E070E06C
:101A700080E090E00E9462012197F5CF0E94730DF3
:101A8000A59F900DB49F900DA49F800D911D1124D2
:101A90000895B7FF0C943E0D0E943E0D821B930BE0
:101AA0000895A1E21A2EAA1BBB1BFD010DC0AA1F9F
:101AB000BB1FEE1FFF1FA217B307E407F50720F0B7
:101AC000A21BB30BE40BF50B661F771F881F991F32
:101AD0001A9469F760957095809590959B01AC017B
:101AE000BD01CF010895A29FB001B39FC001A39F84
:101AF000700D811D1124911DB29F700D811D112447
:101B0000911D0895991B79E004C0991F961708F05C
:101B1000961B881F7A95C9F78095089597FB072E25
:101B200016F4009407D077FD09D00E94A20D07FC9F
:101B300005D03EF4909581959F4F089570956195DD
:101B40007F4F0895AA1BBB1B51E107C0AA1FBB1FF3
:101B5000A617B70710F0A61BB70B881F991F5A9539
:101B6000A9F780959095BC01CD010895EE0FFF1F58
:101B70000590F491E02D0994AEE0B0E0E2ECFDE0D8
:101B80000C9474108C01FA0186E08C831A8309830B
:101B900077FF02C060E070E8615071097E836D8359
:101BA000A901BF01CE0101960E94E80D4D815E8121
:101BB00057FD0AC02F813885421753070CF49A014C
:101BC000020F131FF80110822E96E4E00C9490107F
:101BD000ABE0B0E0EEEEFDE00C9466107C013B0162
:101BE0008A01FC0117821682838181FFC8C1CE0160
:101BF00001965C01F7019381F30193FD859193FFB9
:101C000081913F01882309F453C1853239F493FD52
:101C1000859193FF81913F01853229F4B70190E0CE
:101C20000E94D80FE7CF912C212C312CFFE1F31526
:101C300038F08B3211F190F4803209F1833229F1BE
:101C400037FC3CC020ED280F2A3050F536FE20C06E
:101C50008AE0989E200D1124922E06C08D3291F0BC
:101C6000803371F7689430F8F30193FD859193FF09
:101C700081913F018111DACF21C0689431F86894D5
:101C800032F8F2CF689433F8EFCF689434F8ECCFA1
:101C9000EAE02E9E200D1124222E689435F8E4CF20
:101CA0008E3229F436FC04C1689436F8DDCF8C36C8
:101CB00019F4689437F8D8CF8836B1F2982F9F7D01
:101CC00095549330E0F08336A1F18337C1F1833529
:101CD00009F063C02801F2E04F0E511CF801C080EA
:101CE000D180692D70E036FC02C06FEF7FEFC60136
:101CF0000E94C20F4C01689437F882010AC00C5F41
:101D00001F4FFFE3F98388248394912C6501E894A5
:101D100037F833FE2DC0522C8114910471F55520F3
:101D200009F468CFB70180E290E00E94D80F5A947E
:101D3000F6CFF801808189830E5F1F4FE4CF280121
:101D4000F2E04F0E511CF801C080D180692D70E087
:101D500036FC02C06FEF7FEFC6010E94CD0F4C0131
:101D60008201D5CFB70180E290E00E94D80F2A947B
:101D70002814190409F0B0F7CECFF60137FC85918D
:101D800037FE81916F01B70190E00E94D80F51108A
:101D90005A94F1E08F1A9108BFCF843619F0893632
:101DA00009F077C0F80137FE6BC0608171818281D4
:101DB00093810C5F1F4FF32DFF763F2E97FF09C0D5
:101DC00090958095709561957F4F8F4F9F4F689448
:101DD00037F82AE030E0A5010E940810C82ECA1882
:101DE0008C2C432C36FE0CC0E89440F8C91440F407
:101DF00034FE05C032FC03C0F32DFE7E4F2E892C2D
:101E000044FE95C0FE01EC0DF11D8081803309F088
:101E100087C0242D297E422E842D8870582E43FCA5
:101E200095C040FE8FC09C2C821418F42C0C922C70
:101E3000981844FE91C0B70180E390E00E94D80F4B
:101E400042FE09C088E790E041FE02C088E590E0CC
:101E5000B7010E94D80FC91408F48AC0CA94D12CC3
:101E60009FEFC91AD90ACA0CDB1CF60182916F01D7
:101E7000B70190E00E94D80FAC14BD04B1F74FCF6A
:101E800060817181072E000C880B990B0E5F1F4F2C
:101E900092CFD32CE894D4F82AE030E0853739F19A
:101EA000232D297FD22E8F3601F148F48835A9F0F1
:101EB000F701868197812B96E2E10C94821080379E
:101EC00049F08837A9F7D4FE02C06894D2F820E11F
:101ED00030E00DC06894D4F8F6CF34FE03C0822FF2
:101EE0008660D82E20E132E002C028E030E0F80120
:101EF000D7FE0FC060817181828193810C5F1F4F7B
:101F0000A5010E940810C82ECA183D2CE89437F885
:101F100067CF6081718190E080E00E5F1F4FF0CF4E
:101F200042FC02C0839478CF8394839475CF842D30
:101F3000867809F471CFF6CFB70180E290E00E9475
:101F4000D80F83948214C0F3512C73CF522C58189D
:101F5000821408F46ECFF8CF842D867809F47BCFF5
:101F60008BE241FE80E247FC8DE2B70190E071CF49
:101F7000B70180E390E00E94D80F9A946CCF8FEF66
:101F80009FEF99CFFC010590615070400110D8F788
:101F9000809590958E0F9F1F0895FC0161507040B1
:101FA00001900110D8F7809590958E0F9F1F08958E
:101FB0000F931F93CF93DF93182F092FEB018B8182
:101FC00081FD09C01FEF0FEF812F902FDF91CF917F
:101FD0001F910F91089582FF14C02E813F818C8143
:101FE0009D81281739073CF4E881F981CF010196DA
:101FF0009983888310838E819F8101969F838E832E
:10200000E3CFE885F985812F0995892BA1F3DACFF4
:10201000FA01AA27283051F1203181F1E8946F9319
:102020006E7F6E5F7F4F8F4F9F4FAF4FB1E03ED0BF
:10203000B4E03CD0670F781F891F9A1FA11D680F5D
:10204000791F8A1F911DA11D6A0F711D811D911D90
:10205000A11D20D009F468943F912AE0269F112405
:102060003019305D3193DEF6CF010895462F477069
:10207000405D4193B3E00FD0C9F7F6CF462F4F70C4
:10208000405D4A3318F0495D31FD4052419302D022
:10209000A9F7EACFB4E0A6959795879577956795C8
:1020A000BA95C9F700976105710508959B01AC01C8
:1020B0000A2E06945795479537952795BA95C9F7EF
:1020C000620F731F841F951FA01D08952F923F92CA
:1020D0004F925F926F927F928F929F92AF92BF9238
:1020E000CF92DF92EF92FF920F931F93CF93DF93E4
:1020F000CDB7DEB7CA1BDB0B0FB6F894DEBF0FBE41
:10210000CDBF09942A88398848885F846E847D848D
:102110008C849B84AA84B984C884DF80EE80FD808F
:102120000C811B81AA81B981CE0FD11D0FB6F89405
:10213000DEBF0FBECDBFED010895F894FFCF1F1C89
:102140001F1E1F1E1F1F1E1F1E1F00000000430218
:10215000A301D00190020102DF01F30100000000A1
:102160002805FB045705D104F404E104D2040D0A48
:1021700000256425643A256425643A256425640AAB
:0221800000005D
:107E0000112484B714BE81FFF0D085E080938100F7
:107E100082E08093C00088E18093C10086E0809377
:107E2000C20080E18093C4008EE0C9D0259A86E02C
:107E300020E33CEF91E0309385002093840096BBD3
:107E4000B09BFECF1D9AA8958150A9F7CC24DD24C4
:107E500088248394B5E0AB2EA1E19A2EF3E0BF2EE7
:107E6000A2D0813461F49FD0082FAFD0023811F036
:107E7000013811F484E001C083E08DD089C08234E0
:107E800011F484E103C0853419F485E0A6D080C0E4
:107E9000853579F488D0E82EFF2485D0082F10E0AE
:107EA000102F00270E291F29000F111F8ED06801E7
:107EB0006FC0863521F484E090D080E0DECF843638
:107EC00009F040C070D06FD0082F6DD080E0C81688
:107ED00080E7D80618F4F601B7BEE895C0E0D1E017
:107EE00062D089930C17E1F7F0E0CF16F0E7DF06D8
:107EF00018F0F601B7BEE89568D007B600FCFDCFD4
:107F0000A601A0E0B1E02C9130E011968C91119780
:107F100090E0982F8827822B932B1296FA010C0160
:107F200087BEE89511244E5F5F4FF1E0A038BF0790
:107F300051F7F601A7BEE89507B600FCFDCF97BE46
:107F4000E89526C08437B1F42ED02DD0F82E2BD052
:107F50003CD0F601EF2C8F010F5F1F4F84911BD097
:107F6000EA94F801C1F70894C11CD11CFA94CF0C13
:107F7000D11C0EC0853739F428D08EE10CD085E9AC
:107F80000AD08FE07ACF813511F488E018D01DD067
:107F900080E101D065CF982F8091C00085FFFCCF94
:107FA0009093C60008958091C00087FFFCCF809118
:107FB000C00084FD01C0A8958091C6000895E0E648
:107FC000F0E098E1908380830895EDDF803219F02E
:107FD00088E0F5DFFFCF84E1DECF1F93182FE3DFCA
:107FE0001150E9F7F2DF1F91089580E0E8DFEE27F6
:047FF000FF270994CA
:027FFE00040479
:00000001FF
